:020000040800F2
:10000000001000207172000838B50D4601F050F95B
:10001000DFF8B81C04460878002803BF081D012239
:100020000A7000202146C5646067DFF8A40D2060D7
:10003000A87B01F099F90FF275006060DFF8940D6C
:10004000A0600FF6C110E0600FF6051020610FF2FE
:10005000F56060610FF6A100A061DFF87C0D206201
:10006000DFF8780D6062DFF8780DA062DFF8740DBC
:10007000E062DFF8740D2063DFF8700D60630FF647
:100080008910A0630FF68D10E0630FF6A910E061F0
:100090000FF6F91020640FF62D20A0640FF629301A
:1000A000E0640FF62D402065204632BD2DE9F04F6B
:1000B00082460AF1640097B0D0F810B0DFF8309DA6
:1000C000DBF84C60717A06F130070129D7F800801F
:1000D0000CBF002101210170C0680188DFF8140DF8
:1000E0004908ABF80C100121026842F0400202609E
:1000F000706801F0C4FA01214FF4FC0001F0BFFA6E
:100100000121012001F0BBFAC84506D101214FF4BD
:10011000006001F0BDFA002006E001214FF400501C
:1001200001F0B6FA4FF0805001F082FA012001F0A0
:1001300027F95146404600F026FA684601F026FBB2
:10014000B08A009003218DF804106946306901F0EF
:10015000E5FAB18A306901F024FBB08B00900321ED
:100160008DF804106946B06901F0D8FAB18BB06916
:1001700001F017FBB08C009003218DF80410694644
:10018000306A01F0CBFAB18C306A01F00AFB388A90
:1001900000F08FFC06F180040146A27BF86801F0B4
:1001A0000DFBB88B00F085FC0146E27BB86901F0DD
:1001B00005FB388D00F07DFC0146227C786A01F059
:1001C000FDFA684601F0E2FA0020ADF806000321CE
:1001D00002208DF804008DF805106946388A0090D9
:1001E00006F15C05F86801F099FAB88B0090694651
:1001F000B86901F093FA388D00906946786A01F089
:100200008DFA398AF86801F0CCFAB98BB86901F037
:10021000C8FA398D786A01F0C4FA2878012836D1F5
:10022000288900F046FC0146627C686801F0C6FA45
:10023000A88A00F03EFC0146A27C286901F0BEFAC3
:10024000288C00F036FC0146E27CE86901F0B6FA41
:10025000288900906946686801F060FAA88A0090D1
:100260006946286901F05AFA288C00906946E869C5
:1002700001F054FA2989686801F093FAA98A28697B
:1002800001F08FFA298CE86901F08BFA25E0022849
:1002900023D101208DF80400694628890090686800
:1002A00001F03CFAA88A00906946286901F036FA04
:1002B000288C00906946E86901F030FA298968685D
:1002C00001F06FFAA98A286901F06BFA298CE869B4
:1002D00001F067FA02208DF804002178012911D17C
:1002E000A08900F0E6FB0146227DA06801F066FAD5
:1002F000A08900906946A06801F010FAA189A06861
:1003000001F04FFAA07D012811D1208C00F0D1FB23
:100310000146627DE06901F051FA208C0090694647
:10032000E06901F0FBF9218CE06901F03AFAC84577
:1003300007BF012101200121022001F08FFA504660
:1003400000F0DAFD4FF0A0450BF14404CBF840502B
:1003500000202080284601F08DFA0AA801F000FB59
:1003600000200A9031680B910C900D908DF83800A8
:100370000AA9284601F0CAFA0121284601F010FB1B
:100380000021284601F001FB284601F0F9FA284631
:1003900001F003FB0128FAD012208DF80800022199
:1003A0008DF8091000208DF80A0001218DF80B103E
:1003B00002A801F05AFB0121284601F0D8FA0FA843
:1003C00001F099FA002000210F90109111901291E4
:1003D000149115912020012113908DF85810284672
:1003E0000FA901F06DFA00200390402102208DF842
:1003F000140004910021F07B0690F07D0790089195
:1004000009912846B27DF17B01F0E0FAB27FF17DDF
:10041000284601F0DBFA03A9284600F059FDCBF885
:10042000240003A9F07D0690F07B0790284600F099
:100430004FFDCBF82800F07B0690F07F0790B27D4F
:10044000F17B284601F0C2FA96F82620F17F284673
:1004500001F0BCFA03A9284600F03AFDCBF82C00C5
:1004600003A9F07F0690F07B0790284600F030FD4E
:10047000CBF83000F07D0690F07F0790B27FF17DE1
:10048000284601F0A3FA96F82620F17F284601F0CD
:100490009DFA03A9284600F01BFDCBF8340003A900
:1004A000F07F0690F07D0790284600F011FDCBF814
:1004B0003800402100200390049101208DF81400A1
:1004C0000021F07B0690079108910991284603A925
:1004D00000F0FEFCCBF81400F07D069003A928463E
:1004E00000F0F6FCCBF8180003A9F07F0690284630
:1004F00000F0EEFCCBF820000121284601F05DFA67
:10050000E96C2088090A40EA012121F4F85141F000
:100510004101E9640021A86840F00800A860404655
:1005200001F0C3FC4FF6FF70C8F84000082100201E
:10053000C8F84000404601F0B8FC4021284601F0D0
:1005400078FA0028F9D04021284601F079FA0122F2
:100550004021284601F065FA386848450DD1182039
:100560008DF80800042101208DF80A008DF80B0099
:100570008DF8091002A801F078FA0020E070A07050
:1005800017B0BDE8F08F2DE9F04F89B04C6FD4F86B
:100590004CA0804601F0A0FA06A801F05EFB9AF894
:1005A00008004FF6FF763018ADF818004FF4807150
:1005B0002020ADF81A000AF12A07A0890790ADF8AB
:1005C000201006A93878ADF82200404601F003FB60
:1005D00001A801F024FC602001900121ADF8081071
:1005E000A089400803900AF15C04F889ADF8100076
:1005F000388BADF814002078012809D10421ADF81A
:100600000A106088ADF812006089ADF8160002E0AB
:100610000021ADF80A1001A9404601F034FB788BA7
:10062000ADF81000B88CADF814002178012905D17F
:10063000A089ADF81200E08AADF8160001A9404685
:1006400001F05CFBF88CADF81000388EADF81400AA
:100650002178012905D1208BADF81200608CADF80E
:10066000160001A9404601F07EFB70200021019098
:10067000ADF81010ADF81410039601A9404601F032
:10068000A5FB0821404601F002FC0821404601F08C
:1006900002FC0821404601F002FC0821404601F01E
:1006A00004FC0AF180057021404601F048FC2878DE
:1006B000002600270024BAF8289001289AF8A20002
:1006C0000CBFD5F804B04FF4005B8DF8000080211A
:1006D000404601F028FC01228021404601F007FC41
:1006E000A87D90B101280AF1A2000CBFAF694FF0BC
:1006F000007744786FF48071C8F8101001228021CF
:10070000404601F0F4FB4FF080764BEA5900064377
:100710009DF800003E4346EA004646EA045646F489
:10072000C856C8F844601021404601F001FC06217B
:10073000404601F00EFC0121404601F09AFA09B052
:10074000BDE8F08F2DE9F84306460020776FD7F813
:100750004C80D8F83040386007F13C057860B860CC
:100760002870216ADFF82C0B014021620FF225105E
:10077000B060DFF8240B30627062B062F062306308
:100780007063786A3861304600F0E2F898F82A0021
:10079000401C400800EB00101FFA80F94FF6FD786E
:1007A000C4F810800020297810290ED22269910700
:1007B000F9D5401C81B24945C4F81080F3DB297893
:1007C0001029F0D20120A6F85E00304600F01AF998
:1007D000002028700FF2F500B060386A38613046AA
:1007E00000F0B6F8C4F810800020297810290ED245
:1007F00022699107F9D5401C81B24945C4F810809F
:10080000F3DB29781029F0D20120A6F85E003046EB
:1008100000F0F8F83868000938607968B8680909A4
:1008200079600009B860DFF8AC15DFF8AC0530621C
:10083000B160DFF8A8057062DFF8A405B062DFF8E8
:10084000A405F062DFF8A0053063DFF8A00570634F
:10085000786A38614FF2F770A1690140A161E169DE
:100860000840E061B8896063B889A063B889E06333
:1008700040F60800A1690143A161E1690843E06114
:1008800040F25550216A0143216200202873BDE8DF
:10089000F1830000416FCA6C136B4FF6FE70186154
:1008A00001F13C021078102800D3704710B453684F
:1008B0000C6853F8800F04190C604C6858680419D0
:1008C0004C601078401C107010BC7047416FCA6CAF
:1008D000136B4FF6FE70186101F13C02107810287E
:1008E00009D2D2F804C08B68DCF88000C3188B6092
:1008F0001078401C1070704738B5406FC46C256B81
:100900000121284601F003FB00206863A863E86327
:100910000121284601F0F4FA0028F9D0686C40F46F
:100920000040686414F85C0F022810D121896068C7
:10093000012200F03EFFA18A2069012200F039FF68
:10094000218CE069BDE83840012200F032BF31BDA2
:10095000F8B5074601217C6FE66C356B284601F03F
:10096000D6FA0121284601F0CBFA0028F9D001215E
:10097000284601F0CCFA97F86500012805D101213D
:100980006963216C2069C86402E0A089400868633B
:10099000A0894108A963E963401F28640121284612
:1009A00001F0AEFA0028F9D0686C40F48060686409
:1009B000686C40F40040686416F85C0F02281DD192
:1009C000706831892A6A40F255531A4209D00122CF
:1009D00000F0EFFEB18A3069012200F0EAFE012248
:1009E00008E0002200F0E5FEB18A3069002200F044
:1009F000E0FE0022318CF06900F0DBFE216C206902
:100A0000C864F1BD7CB5FFE1406FC26CD2F8B8207C
:100A100004E00000D0F874004FF0A0428901116397
:100A20000423116C936013685907FCD5116CC181C4
:100A3000C089704733B4406FC06C9DF804109DF8B6
:100A40000520D0F8B8000A290EDB0A3901EB410174
:100A5000836907248C40A343836102FA01F183690F
:100A60001943816133BC70474D1E4369382405EB3F
:100A70004505AC40A343436101EB4101436902FAE0
:100A800001F11943416133BC7047000081B0416FEF
:100A9000463100204A78012A02D1002302204B70FF
:100AA0000A78012A03D1002340F040000B7001B006
:100AB00070470146002001E04908401C0129FBD194
:100AC00080B27047F0B5044687B0656FEE6C94F85D
:100AD0006500376B002866D160220021384601F09E
:100AE000A8F901220021384601F0EDF90022002189
:100AF000384601F0ECF90021384601F0C2F996F8C9
:100B00005C0001280CD110220421384601F091F933
:100B100000220421384601F0D6F9042204210DE018
:100B200002280ED120220421384601F082F9012248
:100B30000421384601F0C7F900220421384601F0AB
:100B4000C6F970220821384601F073F90022082105
:100B5000384601F0B8F900220821384601F0B7F90B
:100B60002021384601F0EBF90020009040210220BE
:100B70008DF8080001910021F07D0390F07D049034
:100B8000059106914FF0A040B27FF17D00F01EFF6D
:100B900001214FF0A04000F03BFF69464FF0A0401C
:100BA00000F096F9E861DFF8F406A0600FF2551046
:100BB000A0610FF29D1020610FF24920E06001203A
:100BC00084F8650007B0F0BDF8B50446656FEF6CBA
:100BD00094F865003E6B012876D185480188CA06E5
:100BE000FBD50288D106FCD497F82A003086602213
:100BF0000021304601F01DF901220021304601F0AC
:100C000062F997F85C00012802D10422002103E078
:100C1000022804D100220021304601F058F9A989A8
:100C20004908304601F02DF960220421304601F0D8
:100C300000F901220421304601F045F997F85C00E3
:100C4000012802D10422042103E0022804D1002259
:100C50000421304601F03BF9A9894908304601F0EA
:100C600012F960220821304601F0E3F80122082140
:100C7000304601F028F997F85C00012808BF0422EB
:100C800002D0022804D100220821304601F01FF9C9
:100C9000A9894908304601F0F8F87021304601F082
:100CA0004EF900214FF0A04000F0B2FE4948A0608C
:100CB000DFF8EC05A061DFF8EC052061DFF8E8055E
:100CC000E060002084F86500F1BD0000E409002028
:100CD00000F15802D069C36CB0F80CC01B6B01FB6B
:100CE0000CF1090C1180C169006CC1641188596351
:100CF0001869D188012900F0010002D100230120E8
:100D0000D380704738B5406FC46C256B0020686392
:100D10000121284601F0FBF80121284601F0F0F8F6
:100D20000028F9D0686C40F40040686414F85C0F47
:100D300002280CD121896068012200F03AFDA18AC5
:100D40002069002200F035FD218CE06954E031BDBE
:100D500038B5406F2649C56C2C6B0A88D306FCD485
:100D60000B88DA06FCD50021218601216163C16967
:100D7000006CC1644FF6FE7121610121204601F033
:100D8000BFF80028F9D0606C40F480606064606C4B
:100D900040F40040606415F85C0F022816D16868C2
:100DA0002989226A40F255531A4204D0012200F0E8
:100DB00000FD012203E0002200F0FBFC0022A98AD2
:100DC000286900F0F6FC298CE86915E031BD0000C7
:100DD000030B00103D060010A30700102B080010A5
:100DE000C308001053090010DF090010770A001033
:100DF000002C014014100240BDE83840002200F0F1
:100E0000D8BC00002DE97C40456F05F148014868D9
:100E10000978046B012917D0626C22F4806200F11A
:100E20005C066264307802280ED131897068002235
:100E300000F0BFFCB18A3069002200F0BAFC318CAE
:100E4000F069002200F0B5FC606C20F400406064A2
:100E500055F8401F486820F040004860886840F01E
:100E600020008860CA6CA888120A40EA022222F494
:100E7000F85242F04102CA64886840F00800886075
:100E80000021204601F011F8E16948F6FF700140A9
:100E9000E1614FF6FF71E06940F4E040E0612164F8
:100EA000002020640821204600F0FFFF2868402130
:100EB00000F0BFFD0028F9D02868402100F0C0FDF7
:100EC000286802B0BDE870400122402100F0A9BDB1
:100ED000C06C087A0A680B69401E10434A681043C8
:100EE000CA6840EA02204A69896940EA833040EAD8
:100EF000025040EA816070472DE9F0418AB0406FAE
:100F0000C06C00F1A408D8F80070D8F80460D8F8D4
:100F10000850D8F80C40002F6FD00121012000F0BC
:100F2000B7FB03228DF804206946B88B0090B8699E
:100F300000F0F4FBB98BB86900F033FC3879012874
:100F40000AD1398A00916946F86800F0E7FB398ACE
:100F5000F86800F026FC0DE0B868402803D1B8F826
:100F60001010002004E0502804D1B8F81010102010
:100F700000F062F90020ADF8080002E0BDF80800BA
:100F8000401CADF80800BDF80800B0F57A7FF5D335
:100F9000B97F012915D102208DF804006946388DEA
:100FA0000090786A00F0BAFB388DFFF782FD0146A9
:100FB00097F82A20786A00F001FC398D786A00F0F1
:100FC000F0FBB8680390002279690491386A0590B3
:100FD00007F12C000168079106924FF480310891C7
:100FE00003A940680990386800F0D8FF38680121EB
:100FF00000F0E9FF386800F0F8FF002E52D0012120
:10100000012000F045FB03208DF804006946B08BF9
:101010000090B06900F082FBB18BB06900F0C1FBB9
:101020003079012809D1318A00916946F06800F0D1
:1010300075FB318AF06800F0B4FBB07F012815D150
:1010400002218DF804106946308D0090706A00F01E
:1010500065FB308DFFF72DFD014696F82A20706A5A
:1010600000F0ACFB318D706A00F09BFBB068029021
:10107000002271690391306A049006F12C00016826
:10108000069105924FF48031079102A940680890BB
:10109000306800F083FF3068012100F094FF306871
:1010A00000F0A3FF002D52D00121012000F0F0FA42
:1010B00003208DF804006946A88B0090A86900F011
:1010C0002DFBA98BA86900F06CFB2879012809D1B8
:1010D000298A00916946E86800F020FB298AE868BF
:1010E00000F05FFBA87F012815D102218DF80410C4
:1010F0006946288D0090686A00F010FB288DFFF784
:10110000D8FC014695F82A20686A00F057FB298D23
:10111000686A00F046FBA8680290002269690391A2
:10112000286A049005F12C000168069105924FF49D
:101130008031079102A940680890286800F02EFFCE
:101140002868012100F03FFF286800F04EFF002CC6
:101150006FD00121012000F09BFA03208DF80400DC
:101160006946A08B0090A06900F0D8FAA18BA06915
:1011700000F017FB207901280AD1218A00916946E5
:10118000E06800F0CBFA218AE06800F00AFB0DE08D
:10119000A068402803D1B8F81210002004E05028BD
:1011A00004D1B8F81210102000F046F80020ADF875
:1011B000080002E0BDF80800401CADF80800BDF8CA
:1011C0000800B0F57A7FF5D3A17F012915D102205F
:1011D0008DF804006946208D0090606A00F09EFA48
:1011E000208DFFF766FC014694F82A20606A00F023
:1011F000E5FA218D606A00F0D4FAA068039000221D
:1012000061690491206A059004F12C00016807913E
:1012100006924FF48031089103A940680990206834
:1012200000F0BCFE2068012100F0CDFE206800F037
:10123000DCFE0AB0BDE8F08170B504460D4684B00E
:1012400001214FF0005000F02CFA3C220020022136
:1012500000920190039102906A46144E2146304656
:1012600000F0CEFE102C2A4604D10421304600F0B6
:10127000FCFE03E00421304600F0F1FE012221468D
:10128000304600F0DBFE01222146304600F0CBFE66
:1012900004B070BDAAFAFFFF950700106B0B001099
:1012A000F908000851090008050A00080074004008
:1012B000064A01461078002803BF101D0123137051
:1012C0000020016700214164704700008008002071
:1012D00038B500F154044DF6B451E5692A884A4303
:1012E000920B0023228023734168884700202083CB
:1012F000A888608331BD002180F86010C16808476C
:10130000002180F860100169084770B50446002587
:1013100008000CD104F1600620463570E16888476A
:101320003069418871803169488870B909E00129C4
:101330000BD104F16001488830B1401E488080B272
:1013400018B96169204688470125284670BD0121EA
:1013500080F8601081690847826B1047C26B1047A4
:10136000C2691047016C0847044A42F820107047D0
:10137000024A52F82000026810470000BC0B00200F
:10138000DFF86C13086070472DE9F841DFF85C2343
:10139000DFF860331168002401F00C01082913D133
:1013A00011681468C1F38341891CE40303D40C461B
:1013B000DFF8441305E0946A04F00F04641CB3FBE7
:1013C000F4F44C43214600E019460160DFF82C7329
:1013D0001168C1F303117D5CD0F800C02CFA05F14F
:1013E00041601668C6F30226BE5D21FA06F68660E5
:1013F0001668C6F3C226BE5DF140C160916A4FEA2D
:10140000111E07F110010EF00F0831F818105FEAF5
:10141000CE6E02D509B1B4FBF1FCC0F810C0916AE0
:101420004FEA512C07F110010CF00F0731F817109B
:101430005FEACC6703D511B1B4FBF1F100E00168BC
:101440004161D16ACF0654BF194601688161D16AF2
:101450008F0654BF19460168C161D16A4F0654BF57
:10146000194601680162D16ACF0505D50768A74210
:1014700004BFAE42610000D0C1684162D16ACF04AE
:1014800005D50768A74204BFAE42610000D0C1681D
:101490008162D16A8F0505D50768A74204BFAE42B5
:1014A000610000D0C168C162D16A4F0505D50768E7
:1014B000A74204BFAE42610000D0C1684164D16A56
:1014C0000F0505D50768A74204BFAE42610000D0F2
:1014D000C1688164D16A8F0407D50768A74208BF35
:1014E000AE4202D16400C46401E0C1688164D16A83
:1014F00011F0030F02D1C168016315E0D16A01F058
:101500000301012908BF046806D0D16A01F0030174
:10151000022903D14FF40044046305E0D16A01F0CD
:101520000301032908BF0363D16A11F4403F02D1CC
:101530008168416318E0D16A01F44031B1F5803F20
:1015400008BF046807D0D16A01F44031B1F5003F0B
:1015500003D14FF40044446306E0D16A01F4403102
:10156000B1F5403F08BF4363D16A11F4402F02D167
:101570008168816318E0D16A01F44021B1F5802FC0
:1015800008BF046807D0D16A01F44021B1F5002FEB
:1015900003D14FF40044846306E0D16A01F4402192
:1015A000B1F5402F08BF8363D16A11F4401F02D107
:1015B0008168C16318E0D16A01F44011B1F5801F60
:1015C00008BF046807D0D16A01F44011B1F5001FCB
:1015D00003D14FF40044C46306E0D16A01F4401122
:1015E000B1F5401F08BFC363D16A11F4400F03D1A6
:1015F00081680164BDE8F181D16A01F44001B1F56F
:10160000800F08BF026807D0D16A01F44001B1F52C
:10161000000F04D14FF400420264BDE8F181D16AA9
:1016200001F44001B1F5400F08BF0364BDE8F1814A
:10163000010F04291ED8DFE801F003080D1218007D
:101640002F490A6822F4807213E02D490B6823F4B5
:10165000007308E02A490A6822F4806209E02849F8
:101660000B6823F400630B6004E025490A6822F448
:1016700000520A6022490B68184308607047214AEB
:101680000029116814BF084321EA00001060704768
:101690001D4A0029116814BF084321EA00001060A8
:1016A00070471A4A0029116814BF084321EA000054
:1016B00010607047164A0029116814BF084321EAD8
:1016C000000010607047134A0029116814BF0843D6
:1016D00021EA0000106070470F4A0029116814BF0A
:1016E000084321EA00001060704700000410024027
:1016F0004C00424200127A0000093D0074000020B4
:101700003010024014100240181002401C10024019
:10171000281002400C1002401010024070B4002249
:10172000002301240D6894402540A54228D10D795D
:10173000012D18BF022D12D1856803269E40B543A6
:10174000856085684E799E4035438560858825EAA9
:101750000404848084888D7995402C4384800324FC
:101760009C400568E4432540056005680E799E406D
:1017700035430560C5682C40CD799D402C43C4603D
:10178000521C9B1C102ACCD370BC70474FF6FF71C3
:101790000160002101710221417100218171C1713B
:1017A000704741F48032C261C161C261C169C069E0
:1017B00070470AB18161704701857047CB0800EB23
:1017C0008300890001F01C01036A4FF00F0C0CFA32
:1017D00001FC23EA0C0303628A40036A1A43026293
:1017E0007047F0B40246106895681318506803EB10
:1017F0005004C00721D54D441FE0F0BC02F10C009D
:10180000704713F8017B05F8017B491EF9D1A0B19F
:10181000B60813F8011B06F00306032E08BF13F8E1
:10182000016B01EB06214942801C294405D011F8C7
:10183000016B05F8016B401EF9D1A342DDD013F80E
:10184000016B16F0030104BF13F8011BC91C30091A
:101850000F28DAD113F8010B0F30D6E7044A00291C
:10186000116814BF084321EA0000106070470000AF
:101870000C2004E080B5B0F1A04F1CBFDFF8C4110C
:10188000884208D101214FF08050FFF713FF00215B
:101890004FF080500FE0DFF8B01188421CBFDFF836
:1018A000AC1188420BD101214FF00050FFF702FF2D
:1018B00000214FF00050BDE80440FFF7FBBE01BD22
:1018C000C368DFF88C2113400A6813434A68134346
:1018D0008A681343CA6813430A6913434A69134366
:1018E0008A691343C360026B097F1209491E41EAEA
:1018F0000212026370470021016041608160C16093
:1019000001614161816101210177704738B4B0F113
:10191000A04F1CBFDFF82C21904207BFDFF8343105
:101920001B68DFF834412368DFF830210D6813406D
:101930004A6815438A681543CA68097C45EA023536
:1019400045EA01252B43B0F1A04F1BBFDFF8F4207F
:101950009042DFF80001DFF80001036031BC7047FE
:101960000021016041608160C160017470470029FD
:10197000816814BF41F0010141F0020181607047AC
:10198000816841F0004181607047826822F08042A6
:10199000826082681143816070478068C00F704721
:1019A000826822F0405282600029816814BF41F0B1
:1019B000805141F00051816070470029C16814BF17
:1019C00041F4001121F40011C160704738B40A29B4
:1019D0000DDB0A3901EB4101836907248C40A343E5
:1019E00083618A4083691A43826131BC70474D1E0E
:1019F0004369382405EB4505AC40A343436101EB43
:101A00004101436902FA01F11943416131BC704758
:101A10000029C16814BF41F4801121F48011C16014
:101A20007047002A426814BF114322EA0101416055
:101A300070470246002012680A4218BF0120704712
:101A40000160704700010050000400500005005084
:101A500007C0FFFD0803005008070050E010FCFF1E
:101A60001849194A08431060704770B40378C17868
:101A70001C460122E1B1144B1B68457803F4E06376
:101A8000C3F5E0631B0AC3F104018D4081780F2682
:101A9000DE4031400D430D4B2D011D5501780C4B9F
:101AA00001F01F008240490943F8212070BC7047B3
:101AB00003F01F03074802FA03F3640940F82430D7
:101AC00070BC70470000FA050CED00E000E400E097
:101AD00000E100E080E100E080B5DFF88814884292
:101AE00008D101214FF40060FFF7EDFD00214FF414
:101AF00000606BE0B0F1804F06D101210120FFF7BB
:101B0000EBFD002101202AE0DFF85C14884206D1B9
:101B100001210220FFF7E0FD002102201FE0DFF895
:101B20004C14884206D101210420FFF7D5FD002185
:101B3000042014E0DFF83814884206D10121102077
:101B4000FFF7CAFD0021102009E0DFF828148842C1
:101B500009D101212020FFF7BFFD00212020BDE891
:101B60000440FFF7B9BDDFF81014884208D1012105
:101B70004FF40050FFF7A7FD00214FF4005025E07F
:101B8000DFF8F813884208D101214FF48030FFF7C5
:101B90009AFD00214FF4803018E0DFF8E41388420A
:101BA00008D101214FF40030FFF78DFD00214FF4E3
:101BB00000300BE0DFF8CC1388420BD101214FF449
:101BC0008020FFF780FD00214FF48020BDE8044015
:101BD000FFF779BD01BD18B4DFF888330488984257
:101BE0001CBFDFF89423904209D0B0F1804F1FBF93
:101BF000DFF874239042DFF87423904204D14FF64B
:101C00008F7214404A881443DFF8642390421CBF4B
:101C1000DFF86023904204D04FF6FF4214400A8957
:101C20001443048098424A68C2620A8802851CBF35
:101C3000DFF8442390420AD0DFF8402390421FBFD0
:101C4000DFF83C239042DFF83C23904201D14989E0
:101C500001860121416111BC70474FF0FF314160A5
:101C60000021018001814180418170470B40038048
:101C7000704721B1028842F0010202807047038858
:101C80004FF6FE71F2E770B4026A52085200026227
:101C9000066A44688569DFF8F02215400A68154332
:101CA0008A8926F0020616438A881643DFF8B42292
:101CB00090421CBFDFF8C02290420AD0DFF8BC225D
:101CC00090421FBFDFF8B8229042DFF8B82290425E
:101CD0000DD1CB89CA8826F008061E4326F00406DB
:101CE00016430A8A24F4407414434A8A1443446015
:101CF000856189684163066270BC704770B4026A8E
:101D000022F010020262046A45688369DFF87C22CF
:101D10008E8913400A6843EA02238A8824F020044B
:101D2000164344EA0614DFF83C62B0421CBFDFF8F9
:101D30004862B04210D1CA890E8A24F0800444EA75
:101D40000214CA8824F0400444EA02144A8A25F4A2
:101D50004065164345EA860545608361896881636D
:101D6000046270BC704770B4026A22F4807202622E
:101D7000036A4468C5690A688E8925F073051543AE
:101D80008A8823F40073164343EA0623DFF8D461FC
:101D9000B0421CBFDFF8E061B04210D1CA890E8AA0
:101DA00023F4006343EA0223CA8823F4806343EAEE
:101DB00002234A8A24F44054164344EA0614446039
:101DC000C5618968C163036270BC704770B4026A00
:101DD00022F480520262056A4368C4690A688E89E7
:101DE00024F4E64444EA02248A8825F40055164384
:101DF00045EA0635DFF86C61B0421CBFDFF8786158
:101E0000B04204D10A8A23F4804343EA8213436038
:101E1000C46189680164FFE7056270BC70470021F6
:101E200001608180C18081608181C18101824182A4
:101E3000704730B401258D40046AED43ADB22C40AB
:101E400000F118030462080018BF08290BD103EB46
:101E50005101DFF83C010B6803400B600868024346
:101E60000A6030BC7047091F03EB5103DFF82401FF
:101E7000196801401960186840EA0220186030BCF7
:101E800070474163704781637047C16370478269DF
:101E900022F0080210E0826922F400620FE0C269B9
:101EA00022F008021143C1617047C26922F4006246
:101EB00042EA0122C261704711438161704742EAE0
:101EC000012282617047036A4FF0010C02E0036A4D
:101ED0004FF0040C0CFA01FC23EA0C03036202FA33
:101EE00001F1036A194301627047406B7047002A91
:101EF000C26811BF1143C94389B21140C160704724
:101F00000246002012690A4218BF012070470BE008
:101F1000024600201369D2680A409BB20B421CBFE4
:101F2000002A0120704700BFC94389B20161704790
:101F300083684FF68F72134019438160704743687E
:101F40004FF68F7213404360FFE7426811434160D0
:101F500070478368104A1340836082681143816030
:101F600070470000002C01400004004000080040C1
:101F700000100040001400400034014000400140C7
:101F800000440140004801408CFFFEFFFF8CFFFE33
:101F90008FFFFEFFFF8FFFFEF8FFFEFF174A1018AE
:101FA00003680A6803F0030313434A6813438A680B
:101FB00013430A691343CA6813434A69896913437F
:101FC0000B43036070470D4A81B0101819B10168C6
:101FD00041F0010103E002685208520002E0016092
:101FE00001B07047026001B07047044908180168E9
:101FF00041F0004101607047000000001C000140FA
:1020000030B40468156840F6FE738B409C435368F7
:102010001D439368D2681D43154305FA01F121431E
:10202000016030BC704781B00123002A026803FAC6
:1020300001F114BF114322EA01010DE081B0012337
:102040000909002A426803FA01F114BF114322EA88
:102050000101416001B07047016001B0704781B07B
:10206000002300930090083104E081B00023009326
:10207000009014310098091800910098026001B096
:1020800070470000DFF800F0930E0010DFF800F05A
:10209000890E0010DFF8B42C1378032B014607D209
:1020A00003EBC30C02EBCC005B1C001D137000E0C3
:1020B00000200164704781B0DDF804C000F82C1FD7
:1020C0004260002183600174C0F80CC001B0704709
:1020D0000246012012F82CCF614501D30020704741
:1020E000117470472DE9F84183B01646436B90F8A0
:1020F0003C2053F82280036B53F82240012500292D
:1021000041D0032944D0052956D0062958D00729A3
:102110005AD008295CD0092961D00A2963D00B293B
:1021200065D00C2967D00D2970D00E2972D00F29E7
:1021300074D0102979D0112900F0B780122900F04D
:102140009480132900F0D480142900F0F48015291C
:1021500000F01081162900F02F81172900F033813B
:10216000182900F03781412900F03D81462900F00F
:102170003F81472900F04681482900F04D815B29C5
:1021800000F05A8164E1F1B2FFF7A2FF054660E179
:10219000F0B238B9204600F01FFF01460022204669
:1021A00000F05DFEF6B2012E40F05381204600F0B3
:1021B000F3FE0022014647E1404600F03FFFFEE00B
:1021C000404600F03BFF01E1404600F037FF28E0C9
:1021D000204600F0F3FE0090ADF8006011E04046AC
:1021E00000F02EFFEBE0404600F02AFFEEE0404614
:1021F00000F026FF15E0204600F0E0FE0090ADF86C
:1022000002602046009900F033FE22E1404600F0D3
:1022100019FFD4E0404600F015FFD7E0404600F03B
:1022200011FF31B200F022FF13E1806B50F82270F1
:102230000024380F092803D1404600F009FF044666
:10224000C7F30360092803D1404600F003FF0446AA
:10225000002C00F0FE806A460DF10201204601F0DC
:1022600092FBBDF9002031B23EE0806B50F8227045
:102270000024380F0A2803D1404600F0E9FE044646
:10228000C7F303600A2803D1404600F0E3FE04468A
:10229000002C00F0DE806A460DF10201204601F0BC
:1022A000CDFBBDF9002031B241E0806B50F82270C7
:1022B0000024380F092803D1404600F0C9FE044627
:1022C000C7F30360092803D1404600F0C3FE04466B
:1022D000002C00F0BE800DF102026946204601F09C
:1022E00052FBBDF9001032B2204601F052FBB0E0C3
:1022F000806B50F822700024380F0A2803D1404622
:1023000000F0A6FE0446C7F303600A2803D1404646
:1023100000F0A0FE0446002C00F09B800DF10202AC
:102320006946204601F08AFBBDF9001032B2204612
:1023300001F08AFB8DE0806B50F822700024380F8A
:10234000092803D1404600F083FE0446C7F303602A
:10235000092803D1404600F07DFE0446002C78D0C9
:102360000DF102026946204601F017FBBDF900108D
:1023700032B21DE0806B50F822700024380F09281B
:1023800003D1404600F064FE0446C7F30360092809
:1023900003D1404600F05EFE0446002C59D06A4648
:1023A0000DF10201204601F0F8FABDF9002031B22A
:1023B000204601F0FFFA4CE0404600F045FE31B205
:1023C00001F083FB45E0404600F03EFE31B201F0F3
:1023D0007EFB3EE0404600F02DFE002839D0B1B231
:1023E00001F086FB35E031B2204600F0F9FD30E027
:1023F000404600F021FE04462146684601F08EFB6F
:10240000019612E0404600F017FE04462146684659
:1024100001F084FB009608E0404600F00DFE044603
:102420002146684601F07AFB0296684690E80E0065
:10243000204601F06FFB0CE0DFF8140986FB00106A
:1024400000EBD071002209B2204600F001FD00E04F
:102450000025284604B0BDE8F081000078B583B0BF
:10246000436B90F83C2053F82240036B53F82260F2
:1024700081294FF0FF3500F21A84DFE811F0820065
:1024800084008A00900094009600A200AE00B40080
:10249000B800BE00C400CA00CE00D400DA00E000DC
:1024A0001401FA002E01620148017C0182018801B9
:1024B000910197019D01A301A701AB01AF01B301F8
:1024C000B701C001C601CA01CE01D201AF01B301FB
:1024D000D601DA01DE01E201E601EA01EE010702BE
:1024E00020026E029C02CA02F802260357028502ED
:1024F000B302E1020F033D0354035A03620368036E
:10250000CA006E0385039C03B203C903D203DB0335
:10251000E403EA03F003F903180418041804180488
:1025200018041804180418041804180418041804CB
:102530001804180402041804370247021804180487
:1025400018041804180418041804180418041804AB
:10255000180418041804180418049C00A800110496
:102560001804130415041804180418041804180493
:10257000180418041804180418041804180418047B
:102580001704154693E3204600F068FD01F07CFB3C
:10259000D5E2204600F062FDFFF774FDCFE2304641
:1025A00000F0CEFCCBE2304674E3204600F046FD5E
:1025B00001F08FFAC3E2204600F040FD01F093FAEB
:1025C000BDE2204600F03AFD01F084FAB7E2204671
:1025D00000F034FD01F089FAB1E2204600F02EFD52
:1025E00000F048FDABE2304600F0E8FC3CE320465A
:1025F00000F026FD01F06DFAA1E2204600F020FD7A
:1026000001F068FA9BE2204600F01AFD00F032FD6E
:1026100095E2304600F0D2FC2FE3204600F012FD98
:1026200001F057FA8BE2204600F00CFD01F052FA5F
:1026300085E2204600F006FD00F01CFD7FE2806B85
:1026400050F822500020290F092904BF204600F02D
:10265000FFFCC5F30361092904BF204600F0FAFC22
:10266000002800F002830DF10202694601F08BF9A7
:10267000FBE2806B50F822500020290F0A2904BF8A
:10268000204600F0E5FCC5F303610A2904BF20469B
:1026900000F0E0FC002800F0E8820DF1020269463B
:1026A00001F0CCF9E1E2806B50F822500020290FB4
:1026B000092904BF204600F0CBFCC5F303610929BA
:1026C00004BF204600F0C6FC002800F0CE826A4617
:1026D0000DF1020101F057F9C7E2806B50F822506A
:1026E0000020290F0A2904BF204600F0B1FCC5F3E1
:1026F00003610A2904BF204600F0ACFC002800F06A
:10270000B4826A460DF1020101F098F9ADE2806BE6
:1027100050F822500020290F092904BF204600F05C
:1027200097FCC5F30361092904BF204600F092FC21
:10273000002800F09A820DF10202694601F02DF99D
:1027400093E2806B50F822500020290F092904BF22
:10275000204600F07DFCC5F30361092904BF204633
:1027600000F078FC002800F080826A460DF102013A
:1027700001F013F979E2204600F066FC01F0A9F9B6
:10278000DDE1204600F060FC01F0A4F9D7E120462D
:1027900000F050FC002800F08A8201F0ABF9CEE195
:1027A000204600F05FFC01F087FAC8E1204600F007
:1027B00057FC01F09BFAC2E1204600F055FC01F005
:1027C000E9FABCE1002100F020FBB8E1012100F0B2
:1027D0001CFBB4E1304600F0D7FB5DE2304600F070
:1027E000E9FB41E2304600F0E5FB46E2204600F01E
:1027F00021FC002800F05B8201F07EF99FE1204679
:1028000000F024FC01F0E1FE99E1304600F0C7FB46
:102810002AE2304600F0C3FB2FE2304600F0C3FB53
:1028200022E2304600F0BFFB27E2304600F0C6FB54
:102830001AE2304600F0C2FB1FE2304600F0C2FB55
:1028400012E2304600F0BEFB17E2304600F0BFFB5C
:102850000AE2304600F0BBFB0FE2806B50F82260CA
:102860000020310F022912BF0129204600F0F0FBA1
:10287000C6F30361022912BF0129204600F0EAFBDA
:10288000002800F01482FFF701FC58E1806B50F83B
:1028900022600020310F022912BF0129204600F0DA
:1028A000D7FBC6F30361022912BF0129204600F0BD
:1028B000D1FB002800F0FB8101F0E7FE3FE1806BD7
:1028C00050F822600020310F092904BF204600F093
:1028D000BFFBC6F30361092904BF204600F0BAFB21
:1028E000002800F0E481FFF7D1FB28E1806B50F86D
:1028F0002200000F0B2840F0DA81204600F0A8FBF0
:10290000002800F0D481FFF7C1FB18E1806B50F87C
:102910002200000F0B2840F0CA81204600F098FBEF
:10292000002800F0C48101F0B0FE08E1806B50F88F
:1029300022600020310F0A2904BF204600F088FBE6
:10294000C6F303610A2904BF204600F083FB002878
:1029500000F0AD81FFF79AFBF1E0806B50F8226048
:102960000020310F092904BF204600F071FBC6F397
:102970000361092904BF204600F06CFB002800F029
:10298000968101F082FEDAE0806B50F82260002030
:10299000310F0A2904BF204600F05AFBC6F3036139
:1029A0000A2904BF204600F055FB002800F07F8173
:1029B00001F06BFEC3E0806B50F822600020310F05
:1029C000092904BF204600F043FBC6F3036109292F
:1029D00004BF204600F03EFB002800F0688100F0B4
:1029E000C1FF41E1806B50F822600020310F0A29BD
:1029F00004BF204600F02CFBC6F303610A2904BF84
:102A0000204600F027FB002800F0518101F004F877
:102A10002AE1806B50F822600020310F092904BFA1
:102A2000204600F015FBC6F30361092904BF2046C8
:102A300000F010FB002800F03A8100F093FF1CE149
:102A4000806B50F822600020310F0A2904BF204615
:102A500000F0FEFAC6F303610A2904BF204600F025
:102A6000F9FA002800F0238100F0D6FF05E1806B21
:102A700050F822600020310F092904BF204600F0E1
:102A8000E7FAC6F30361092904BF204600F0E2FA21
:102A9000002800F00C8100F059FFE5E0806B50F851
:102AA00022600020310F0A2904BF204600F0D0FA2E
:102AB000C6F303610A2904BF204600F0CBFA0028C0
:102AC00000F0F58000F09CFFCEE0806B50F82260B3
:102AD0000020310F092904BF204600F0B9FAC6F3DF
:102AE0000361092904BF204600F0B4FA002800F071
:102AF000DE8000F02BFFC0E0806B50F822600020E9
:102B0000310F0A2904BF204600F0A2FAC6F3036180
:102B10000A2904BF204600F09DFA002800F0C78073
:102B200000F06EFFA9E08269002A00F0BF8000215A
:102B300004E08269002A00F0B9800121904705462F
:102B4000B5E0204600F088FA01F060FEA4E02046DF
:102B500000F082FA01F05DFE9EE0806B50F822608A
:102B60000020310F092904BF204600F071FAC6F396
:102B70000361092904BF204600F06CFA002800F028
:102B8000968000F026FF41E0806B50F82260002024
:102B9000310F092904BF204600F05AFAC6F3036139
:102BA000092904BF204600F055FA002800F07F8074
:102BB00000F013FF2AE0806B50F822600020310FF4
:102BC0000A2904BF204600F043FAC6F303610A292C
:102BD00004BF204600F03EFA002868D000F038FF1D
:102BE00014E0806B50F822600020310F0A2904BFE6
:102BF000204600F02DFAC6F303610A2904BF2046DF
:102C000000F028FA002852D000F026FF05144EE00C
:102C1000204600F011FA0146684600F07FFF019D52
:102C200045E0204600F008FA0146684600F076FFCD
:102C3000009D3CE0204600F0FFF90146684600F0A8
:102C40006DFF029D33E0204600F0F6F900F075FFBD
:102C50000AE0204600F0F0F900F06FFF0DE020469A
:102C600000F0EAF900F06EFF0090BDF900501EE0A0
:102C7000204600F0E1F900F065FF0090BDF9025038
:102C800015E0304600F05CF90128304602D100F032
:102C900070F901E000F080F900EB40014D0006E022
:102CA0002C4D04E0022502E0042500E00025284622
:102CB00004B070BD38B550F8302F007B0124491E98
:102CC00052F820500D292DD8DFE801F007090B2D0F
:102CD0002D142024282C2C2C2C09284610E02846C2
:102CE00011E0284600F01DF906281CD1284600F006
:102CF00048F918E0284600F014F90028284602D1C7
:102D000000F0C5F80FE000F0CCF80CE0284600F029
:102D1000CCF808E0284600F0CBF804E0284600F0A4
:102D200064F900E00024204632BD10B5084B81FB59
:102D3000034303EBD37150F8303F007B53F820007E
:102D400009B200F085F8012010BD000060040020E9
:102D5000ABAAAA2A89BB44332DE9F843894650F827
:102D6000341F1646027A51F822001F4600F06EF911
:102D700001245FEA00080FD0089D494601F011FCCC
:102D800030804946404601F012FC388049464046B2
:102D900001F014FC288000E000242046BDE8F28306
:102DA0002DE9F0410C4650F8341FBDF91870154656
:102DB000027A51F822001E4600F048F980462A4661
:102DC000214601F0DCFB32462146404601F0DDFBA6
:102DD0003A462146404601F0DEFB0120BDE8F08185
:102DE00082B0ADF80010ADF8022050F8302F037B10
:102DF000009952F8230002B000F03AB80020704762
:102E0000C368002B18BF1847704780B50369832239
:102E10000BB198470246104602BD0000064A1378DF
:102E2000022B014605D202EB43105B1C001D137000
:102E300000E00020C1617047380A00200160426054
:102E4000002183600173C1810182C18201767047D4
:102E500001230373C181C2820376437670470182E6
:102E600002230121017603730021C282417670475B
:102E700002B403210173BDF800104182BDF80210B5
:102E80008182012101760021417601B0704710B5A1
:102E900004460321206800F071FE012808BF207657
:102EA00010BD0068072100F069BE006800F0E1BEB7
:102EB0000068012100F062BE10B5040030D0207E11
:102EC00001282DD1217B0020012904D00FD3032913
:102ED0001BD00FD30BE0A26882F82400606801F0D9
:102EE00017FCE28AB4F90E10606801F015FCA8B175
:102EF000022014E0A16881F824000021606801F03C
:102F000007FCE28AB4F91010EEE7A168012081F80D
:102F10002400A168D4F812000861E9E703202076B4
:102F200010BD0068FFF7AEB880B5006800F0ACFED9
:102F300080B202BD80B5006800F0A6FE000C02BDA4
:102F4000407E7047014601200A7E012A04D00FD33B
:102F5000032A07D003D37047B1F90E1004E0B1F98A
:102F6000101001E0B1F91210002948BF4FF0FF30F6
:102F70007047014600200A7B012A08BFB1F90E0004
:102F80007047406801F049BC80B5406801F0AFFB74
:102F9000BDE8024001F036BB406801F0B2BB81B031
:102FA0008068016802E081B080684168009108464D
:102FB00001B0704781B08068C168F7E781B0806870
:102FC0000169F3E781B08068D0F81610EEE781B0B0
:102FD0008068D0F81A10E9E78068B0F91E007047E1
:102FE0008268518280688182704710B504466068AB
:102FF00001F01BFCA168086110BD0000084A1378AD
:10300000022B014609D29C46582010FB0CFC02EB17
:103010000C005B1C001D137000E000204165704730
:10302000140600200EB400B501A9542201F012FCD0
:103030005DF810FB006C7047406C7047006870478B
:103040004068704780687047C06870474069704743
:1030500080697047C0697047406A7047806A7047EE
:10306000C06A7047006B7047C06B7047006A00B160
:1030700081807047006A08B1B0F904007047000011
:1030800030B5DFF8704581B00120A060DFF8680539
:103090002060256800F0A8F885421CBF20688047A2
:1030A000DFF858050021016041600FF24D01816099
:1030B0000021C1600161416101B030BD30B5DFF870
:1030C000344581B00120A060DFF82C052060256820
:1030D00000F08AF885421CBF20688047DFF81C0595
:1030E0000021016041600FF24D0181600021C1604B
:1030F0000161416101B030BD00B5DFF8F80481B075
:1031000001218160DFF8F824DFF8F814016001681C
:1031100091421CBF00688047DFF8E0040021016095
:10312000416081600FF23131C16000210161416174
:1031300001B000BD00B5DFF8BC0481B001218160A1
:10314000DFF8BC24DFF8BC140160016891421CBFA9
:1031500000688047DFF8A4040021016041608160BD
:10316000C16001610FF20901416101B000BD0000C1
:1031700000B5DFF8800481B001218160DFF8802490
:10318000DFF880140160016891421CBF006880472D
:10319000DFF86804002101600FF2D52141600021B1
:1031A0008160C1600161416101B000BD00B5DFF81F
:1031B000440481B001218160DFF84424DFF8441425
:1031C0000160016891421CBF00688047DFF82C0451
:1031D0000FF26D210160002141608160C1600161D9
:1031E000416101B000BD0000F0B5A0B0002300A90E
:1031F0004FF0FF3222FA03F404F0010441F8044BCB
:103200005B1C22FA03F404F0010441F8044B5B1C3C
:1032100022FA03F404F0010441F8044B5B1C22FA87
:1032200003F45B1C04F00104202B41F8044BE1D3B0
:103230000021DFF8D42300AB9D6FDC6F5E6FAD071C
:1032400005EBC47505EB46751E6F05EB0675DE6E66
:1032500005EBC6659E6E05EB86655E6E05EB466505
:103260001E6E05EB0665DE6D05EBC6559E6D05EB26
:1032700086555E6D05EB46551E6D05EB0655DE6CFD
:1032800005EBC6459E6C05EB86455E6C05EB464539
:103290001E6C05EB0645DE6B05EBC6359E6B05EB3C
:1032A00086355E6B05EB46351E6B05EB0635DE6A33
:1032B00005EBC6259E6A05EB86255E6A05EB46256D
:1032C0001E6A05EB0625DE6905EBC6159E6905EB52
:1032D00086155E6905EB46151E6905EB0615DE6869
:1032E00005EBC6059E6805EB86055E6805EB4605A1
:1032F000009E7519C1F11F0620FA06F707F00106B6
:10330000744000940226009C6C4004F001045C6050
:1033100002AC009F22FA06FC0CEA0707A6F1010C9A
:1033200025FA0CFE8EEA070707F0010744F8047B34
:10333000761C009F22FA06FC0CEA0707A6F1010C96
:1033400025FA0CFE8EEA070707F0010744F8047B14
:10335000761C009F22FA06FC0CEA0707A6F1010C76
:1033600025FA0CFE8EEA0707761C07F00107202ECF
:1033700044F8047BCDD3491C2029FFF45DAF996F3D
:10338000D86F890701EBC070596F00EB4170196F5E
:1033900000EB0170D96E00EBC160996E00EB8160AB
:1033A000596E00EB4160196E00EB0160D96D00EBC6
:1033B000C150996D00EB8150596D00EB4150196D72
:1033C00000EB0150D96C00EBC140996C00EB8140DF
:1033D000596C00EB4140196C00EB0140D96B00EBDC
:1033E000C130996B00EB8130596B00EB4130196BA8
:1033F00000EB0130D96A00EBC120996A00EB812013
:10340000596A00EB4120196A00EB0120D96900EBF1
:10341000C110996900EB8110596900EB41101969DD
:1034200000EB0110D96800EBC100996800EB810046
:10343000596800EB41000099081820B0F0BD000069
:103440006E48002101606C49416000218160C160CB
:1034500001614161704700006848002101606B49CB
:10346000416000218160C1600161416170470000DD
:10347000624867490160002141608160C16001616B
:103480004161704730B581B00D4601F0A1F80446A6
:1034900060480178002903BF011D0122027000214C
:1034A0000FF28110C1F8D050A16220600FF23100FC
:1034B00060600FF28530A0605748E0600FF269103D
:1034C00020610FF20D506061A06AD0F8D00010307A
:1034D00000F0C6FAA16A4861204601B030BD000084
:1034E0002DE9F043804683B0D8F828600FF24930C8
:1034F000D6F8D050414F01904FF001094848009054
:10350000386880472888308068887080A888B080B4
:1035100078688047E888F080288930816889B081A0
:10352000A889F081E88EA6F8C600288FA6F8C80002
:10353000B868804795F8300086F8AE00012086F81C
:10354000BC00F86880470020708278688047B5F931
:103550000C10324890FBF1F4B868804724B234B3C1
:1035600004EBD470C403708A401C24144FEA490948
:103570007082E4B104EBD471CC03401C24144FEAF4
:10358000490970829CB104EBD471CC032414401C13
:10359000002C4FEA4909708209D004EBD471CC03A6
:1035A0002414401C002C4FEA49097082D8D1786954
:1035B0008047A6F81090B5F90C00B6F9101010FB72
:1035C00001F042F6BE0190FBF1F070814046019996
:1035D0008847786880477069009988470020A8F874
:1035E000200038688047E88DA6F8CC0003B0BDE81D
:1035F000F08300000030024081300008D00000203D
:103600000AC34C3033BB55AAB71DC104BD300008F6
:10361000AD3100083C050020C10B00105EEA0F0030
:10362000893A0008704700002DE9F247014600245E
:103630008B6AD3F8D00090F828502046012D4FF027
:10364000000EA046A146A4460246064635DB15F00C
:10365000030A0AD0F6B203EB4607761CB7F92C70C2
:10366000BAF1010A0EFA87FEF4D1AF0825D0F6B2FE
:1036700003EB460A761CBAF92CA00EFA8AFA5FFA16
:1036800086FE03EB4E060EF1010EB6F92C600AFA27
:1036900086F65FFA8EFE03EB4E0ABAF92CA006FA04
:1036A0008AFA0EF10106F6B203EB460E761CBEF95D
:1036B0002CE07F1E0AFA8EFED9D10026012D9EFB3A
:1036C000F5FE3BDB15F0030A0CD0F6B203EB460720
:1036D000761CB7F92C70A7EB0E07BAF1010A07FBAD
:1036E0000744F2D1AF0829D0F6B203EB460A761CA4
:1036F000BAF92CA0AAEB0E0A0AFB0A44F6B203EBB5
:10370000460A761CBAF92CA0AAEB0E0A0AFB0A4458
:10371000F6B203EB460A761CBAF92CA0AAEB0E0A05
:103720000AFB0A44F6B203EB460A761CBAF92CA04F
:10373000AAEB0E0A7F1E0AFB0A44D5D10EFB0EF639
:1037400094FBF5F4B51106EB5565D3F8D060768D92
:10375000ED117543AC424C6A648904FB0EF4B8BFAA
:103760004FF0010C04EB84056C00E51304EB1544E9
:1037700091F82350241494FBF5F4009D2C808C8345
:1037800083F8ADC093F8BC50012D33D18D6AD5F8C4
:10379000D050AE8E002C48BF6442B44223DAB3F955
:1037A0002880B3F92A6018FB08F816FB06884E6AD1
:1037B000B6F90260C4EBC43494FBF6F495F83360B8
:1037C00095F832506643771106EB9766B61106FB03
:1037D00004F94FEA691409EB9464A41105FB1494ED
:1037E0004445B8BF012283F8B120C3F8B480C3F8C0
:1037F000B89000E0012293F8B040CCB193F8AD400E
:10380000002C18BF002A11D193F8AF20521C83F866
:10381000AF20D2B2896AD1F8D01091F831108A4223
:1038200006D383F8AF0001B0BDE8F08783F8AF009E
:10383000012001B0BDE8F087002130B5846AA161A4
:10384000E161216261620183C18384F8AE1084F872
:10385000AF1084F8B01084F8B110C4F8B410C4F8F4
:10386000B810C4F8C01084F8CA1084F8CB1081B026
:10387000856AD5F8D00090F82800012804DB4100C3
:1038800005F12C0001F02AF8002085F8AC00A5F81D
:10389000C40001B06069BDE83040002100F021B9EA
:1038A000F0B40A46846A94F8CB50D4F8D0300021A2
:1038B000012D94F8CA5008BFB0F91C20012D37D053
:1038C000B0F91C5012FB05F7012F3CDB002D44BF63
:1038D0006D422DB2002A48BF524293F82C6012B2BA
:1038E00016FB02F6F71006EB177693F82D7017FB10
:1038F00002F2D71002EB177294F8AD703603120380
:10390000012F1ED1B4F8CC701FFA85FC674518D280
:10391000B5EB224FA4BF3614AE4212DB94F8AE20B2
:10392000521C84F8AE20D2B293F830309A420AD3B7
:10393000012184F8B010002280F822200846F0BC53
:10394000704784F8AE10F0BC08467047806AB0F942
:10395000281081B0ADF80010408DADF8020000983D
:1039600001B07047806AB0F8C610826981B042FA2F
:1039700001F3ADF80030C06940FA01F2ADF8022061
:10398000009801B07047806A43880B80C08810801F
:103990007047806A4180C280704770B5866A7069DE
:1039A0000C46154600F095F82080706900F092F8FA
:1039B000288070BD30B5856A686981B0144600F012
:1039C00084F86869214601B0BDE8304000F07FB856
:1039D0007047806AD0F8B8007047806AD0F8B400A9
:1039E0007047806A90F8AD007047806A012180F8C6
:1039F000CA107047806A012180F8CB107047000020
:103A0000806AB0F9241081B0ADF80010C08CADF818
:103A10000200009801B07047806AD0F84C114269EA
:103A2000C98B81B042FA01F3ADF80030806940FAE9
:103A300001F2ADF80220009801B07047806A438817
:103A40000B80C08810807047806A4180C2807047B8
:103A5000806AD0F838017047806AD0F83401704726
:103A6000084A1378082B014607D203EBC30C02EB7C
:103A70008C005B1C001D137000E00020C161002160
:103A80000162704720020020C1690A880280C26971
:103A90005188418000214160C1698A68C1698260A2
:103AA000CA68C169C2600A8AC16902824A8AC16958
:103AB00042828A88C1698282CA88C169C2828A8A2E
:103AC000C1690283CA8A428370470180704741807E
:103AD000704700E002E0B0F900007047B0F9020062
:103AE000704741607047808A7047C08A7047000005
:103AF0000181704700897047B0F90E104069008855
:103B00004FF47A7211FB02F1B1FBF0F080B2704712
:103B100000000000C16002614361704783B0CA6861
:103B200000920A6901924969029100A9B1E80C105A
:103B3000A0E80C100C3803B0704781B0006800900A
:103B400001B0704781B00068009001B0704700007C
:103B500006490A78022A06D202EB42000844521CA7
:103B6000001D0A707047002070470000CC0B002039
:103B700000210170417081707047000018B4024646
:103B8000084613780021122B0DD8DFE803F0212717
:103B900048334346484A4C4F0C0C0A2D2F313D3FC9
:103BA0004100040046D003281CBF0128072846D046
:103BB000507840F0800050700A2B907840F08000E0
:103BC00090705078507037D1002838D10B2035E0F4
:103BD0000446032C2ED0012C2AD12BE0072818BF35
:103BE0000D2827D00E281FE00E2814E00F2812E021
:103BF000022810E0072818BF10281BD0042818BF7F
:103C0000112817D001280FE0112804E0122802E043
:103C1000042800E0052802D10CE006280AD0072875
:103C200002E0082800E00928BDD103E0040001D02B
:103C30000C2CB8D1012101E008B10A20107008460F
:103C400012BC704710B403465C7818780C435C7063
:103C50009C78214399700A28597821EA02025A7007
:103C600002D122B90B2001E00AB10A20187010BC61
:103C70007047014600200A780B2A04D109200870F9
:103C8000002088700120704701468878497840EA12
:103C900001407047054A01461078002803BF101DF7
:103CA000012313700020416170470000200B0020A9
:103CB000026810478168084701464A69C8895188E7
:103CC0004843000C70470000054A01461078002860
:103CD00003BF101D012313700020416170470000D5
:103CE000000B00200268104781680847C168084738
:103CF0000449087818B90122081D0A70704700208D
:103D0000704700004403002010B504462268904725
:103D10002046BDE8104010B504464FF4807104F110
:103D20000C0000F0DFFD04F5867000210180418069
:103D300020466168BDE81040084738B505460024B4
:103D4000A968884705F58672014605F10C001388BD
:103D500020F81310108850801088401C108080B20A
:103D6000802828BF14800C35202035F9023BE31849
:103D700035F9024B1B1935F9024B1B1935F9024B6A
:103D80001C19401EF1D1A01104EB5064E411948081
:103D9000084632BDB0F9100170470000DFF800F0AE
:103DA000610E001030B5DFF8C84481B00120A0607A
:103DB000DFF8C0042060256800F0A4F885421CBF2D
:103DC00020688047DFF8B0040021016041600FF2F5
:103DD0004D0181600021C1600161416101B030BDD0
:103DE00030B5DFF88C4481B00120A060DFF8840496
:103DF0002060256800F086F885421CBF2068804757
:103E0000DFF874040021016041600FF24D01816010
:103E10000021C1600161416101B030BD00B5DFF832
:103E2000500481B001218160DFF85024DFF8501484
:103E30000160016891421CBF00688047DFF83804C8
:103E400000210160416081600FF22531C1600021D5
:103E50000161416101B000BD00B5DFF8140481B01B
:103E600001218160DFF81424DFF814140160016877
:103E700091421CBF00688047DFF8FC03002101600D
:103E800041608160C16001610FF20901416101B0CF
:103E900000BD000000B5DFF8D80381B001218160CA
:103EA000DFF8D823DFF8D8130160016891421CBF06
:103EB00000688047DFF8C003002101600FF2C921CC
:103EC000416000218160C1600161416101B000BDBC
:103ED00000B5E74881B001218160E84AE849016006
:103EE000016891421CBF00688047E3480FF26921D6
:103EF0000160002141608160C1600161416101B0E8
:103F000000BD0000F0B5A0B0002300A94FF0FF32C3
:103F100022FA03F404F0010441F8044B5B1C22FA7A
:103F200003F404F0010441F8044B5B1C22FA03F48F
:103F300004F0010441F8044B5B1C22FA03F45B1CFF
:103F400004F00104202B41F8044BE1D30021CD4AB9
:103F500000AB9D6FDC6F5E6FAD0705EBC47505EBC5
:103F600046751E6F05EB0675DE6E05EBC6659E6E2B
:103F700005EB86655E6E05EB46651E6E05EB066518
:103F8000DE6D05EBC6559E6D05EB86555E6D05EB4A
:103F900046551E6D05EB0655DE6C05EBC6459E6C61
:103FA00005EB86455E6C05EB46451E6C05EB06454C
:103FB000DE6B05EBC6359E6B05EB86355E6B05EB60
:103FC00046351E6B05EB0635DE6A05EBC6259E6A97
:103FD00005EB86255E6A05EB46251E6A05EB062580
:103FE000DE6905EBC6159E6905EB86155E6905EB76
:103FF00046151E6905EB0615DE6805EBC6059E68CD
:1040000005EB86055E6805EB4605009E7519C1F156
:104010001F0620FA06F707F00106744000940226F6
:10402000009C6C4004F001045C6002AC009F22FA2A
:1040300006FC0CEA0707A6F1010C25FA0CFE8EEA35
:10404000070707F0010744F8047B761C009F22FA5B
:1040500006FC0CEA0707A6F1010C25FA0CFE8EEA15
:10406000070707F0010744F8047B761C009F22FA3B
:1040700006FC0CEA0707A6F1010C25FA0CFE8EEAF5
:104080000707761C07F00107202E44F8047BCDD3E8
:10409000491C2029FFF45DAF996FD86F890701EBA8
:1040A000C070596F00EB4170196F00EB0170D96E51
:1040B00000EBC160996E00EB8160596E00EB4160CE
:1040C000196E00EB0160D96D00EBC150996D00EBEA
:1040D0008150596D00EB4150196D00EB0150D96CC6
:1040E00000EBC140996C00EB8140596C00EB414002
:1040F000196C00EB0140D96B00EBC130996B00EB00
:104100008130596B00EB4130196B00EB0130D96AFB
:1041100000EBC120996A00EB8120596A00EB412035
:10412000196A00EB0120D96900EBC110996900EB15
:104130008110596900EB4110196900EB0110D96831
:1041400000EBC100996800EB8100596800EB410069
:104150000099081820B0F0BD47480021016045498A
:10416000416000218160C1600161416170470000D0
:104170004148002101604449416000218160C160E3
:1041800001614161704700003B48404901600021E6
:1041900041608160C1600161416170473C4A1178B2
:1041A000002903BF111D012313700021C1F89000E5
:1041B000084670472DE9F04F83462F4CDBF89050AE
:1041C0006E6881B02068884691469A46804760684C
:1041D0008047CBF80080CBF804900027A068804788
:1041E000E0688047CBF878A00A98CBF88000606838
:1041F0008047A06880478BF884708BF88570606971
:10420000804760688047206880470BF116000EE009
:10421000318820F8021C7F1C71880180FFB2B188B0
:10422000418000F10A01C0F806100C30B6680EB1EA
:10423000082FEDD307EB47010BEB8101002008614C
:104240006421688AABF86800288AABF86C0000200B
:10425000CBF8700028888BF8747048434FF47A715B
:10426000B0FBF1F08BF88D0001B0BDE8F08F0000DD
:1042700000300240A53D0008B80000200AC34C30C1
:1042800033BB55AAB71DC104E13D0008D13E00086B
:10429000600700202DE9F04381B004460020D4F8E7
:1042A0000490D4F8008084F88500C4F88800A074D5
:1042B00084F87C0084F884000D46D4F89060258250
:1042C000484600F0A4F90021404600F021FA708829
:1042D00010FB05F109B2484600F097F900220021D1
:1042E000404604F1140700F017FAB8883A8810FB2A
:1042F00005F109B2404600F00FFA78883A8810FBC1
:1043000005F109B2484600F073FB3888318848430C
:104310004FF47A71B0FBF1F0401C2081B868E06086
:1043200001B0002084F88C00BDE8F0832DE9F04F47
:10433000044681B0E668D4F890503088ADF80000AB
:1043400001272089002800F0C280401E2081287D9E
:10435000002800F0B980A07C002840F0B58094F8D7
:104360008500002840F0AD8094F88C0094F88D1002
:10437000401C84F88C00C0B2814207D2A06FFFF7C6
:104380000DFD002084F87C0084F88C00A06FFFF7FE
:1043900028FB70B194F87C007F280ED2401C84F872
:1043A0007C00A06F00F02EF9D4F8881001FA80F09C
:1043B00001E084F87C00C4F8880094F87C0094F84C
:1043C0008D10B0EB510F40F07F80A06F00F01AF914
:1043D0008046B8F1000F46BFC0F100090FFA89F915
:1043E000C146B4F91000012808DBB8F1010F08DA62
:1043F000002084F87C00C4F8880065E0B8F1000F64
:10440000F6D568891FFA89F1884205D2A06FFFF7B7
:10441000ECFA84F8857057E0A889884254D2606825
:1044200000F052FBA06F4FF0000AFFF7E3FAD3460B
:1044300009E0B06868B1B6F904B0E0600646A07C57
:10444000401C8A46A074B6F9020048451FDAB168DC
:1044500011B90020208137E08246A07CB6F904B073
:10446000E160401C0E46A074B6F9020048450EDA21
:10447000B1680029EDD08246B6F904B0A07CE160B5
:104480000E46401CA074B6F902104945D1DBB6F9BE
:104490000400B6F90210A0EB0B0000FB08F0A1EB42
:1044A0000A0190FBF1F00BEB00012068002209B239
:1044B00000F032F904F16800E06027810620A07462
:1044C00002E0A06FFFF791FA2089002853D1E0683D
:1044D0000028287D40D0C0B1A07C68B9D4F8800005
:1044E000FCF709FFD4F8800084F88470FCF72FFFF4
:1044F000002084F87C0008E0012806D1D4F8800070
:10450000FCF7FEFE002084F88400B088218ABDF804
:10451000008010FB01F12068424609B200F0FCF86F
:104520007088218ABDF8002010FB01F1606809B293
:1045300000F05EFA288800FB08F04FF47A71B0FBB7
:10454000F1F0401C208101B0B068E060A07C401C0C
:10455000A0743846BDE8F08F00281CBFA07C04285A
:1045600008D0072807D10020A074208101B0384668
:10457000BDE8F08F0027384601B0BDE8F08F01EBB1
:10458000410300EB83008282704701EB410300EBA3
:104590008300C282704701EB410300EB830002837A
:1045A000704701EB410200EB8200808A704701EB0B
:1045B000410200EB8200B0F91600704701EB4102A6
:1045C00000EB8200B0F91800704790F87400704753
:1045D000084A1378032B014609D29C462C2010FB75
:1045E0000CFC02EB0C005B1C001D137000E00020B3
:1045F00041627047F8070020011D0A6A1378CB77E3
:1046000009680847B0F91C0070474269104700F17B
:10461000080100228A7609680847F8B504460F4663
:10462000606A8679226920469047012508B930469C
:1046300026E000217A5E94F822001300636A5F8806
:1046400048BF52421FFA82FC67459F8838BF01214C
:1046500092B2BA42B4F920201B8938BF0121170059
:1046600048BF524292B2934200D319B1B04204DA29
:10467000401C02E0B042B8BF0020C1B2B14200D13C
:10468000002584F822002846F2BDB0F91C10406ACB
:10469000B0F90220C1EBC13191FBF2F000B27047DA
:1046A000DFF800F0350200103E4A0146107800287D
:1046B00003BF101D01231370002001627047036ABD
:1046C000016142610022997B0170B3F91010090465
:1046D0004160B3F91210428009048160C2608261B6
:1046E000598981839989C1837047416170474069C5
:1046F00070470178012903D100690021FFF7F1B962
:1047000070474068FFE7C11300EB11400014704789
:1047100001700021C1607047F8B5076A0478012371
:104720000D46B4B98668B0F91EE04FEAE63C06EBE8
:104730001C46B0F81CC03614AC45B8BF0023714508
:1047400019DB5BB3E2B92D04012C0CBF4560856019
:1047500013E04668B7F802C03614AC45A4BFB7F9F9
:1047600008E0714507DBB7F804C06545BCBFB7F981
:1047700006C08C45E6DA002310E00021C1600CE0A1
:104780004180AD1B3988084F4A43A2FB0774610A78
:10479000491CC1602D0495FBF1F181611846F2BD01
:1047A00000000000D80A0020986E128370B50446FD
:1047B0002078E16800280CBFA5686568012904D944
:1047C000A069491E4519E16005E004D1B4F9025021
:1047D00000202D04E060E81305EB10462178361424
:1047E00001290CD16069FFF70DFF361A206931B23B
:1047F000FFF756FF064600046560A06000E0A56074
:10480000304670BD006AB0F910007047006A4088F9
:104810007047006AB0F908007047014600200A7826
:10482000012A04BFC8600120704781B0006AB0F956
:104830001210ADF80010808AADF80200009801B0A7
:10484000704710B504466069FFF7DCFE0004606045
:1048500010BD0000103A07D330B4B1E83810103A58
:10486000A0E83810F9D230BC530724BFB1E80810D3
:10487000A0E8081044BF51F8043B40F8043BD207BD
:1048800024BF31F8022B20F8022B44BF0B780370B1
:104890007047121F17D35B0009D151F8043B20F871
:1048A000023B1B0C121F20F8023BF6D20BE051F822
:1048B000043B00F8013B1B0A20F8023B1B0C121FB3
:1048C00000F8013BF3D238BF121D521E24BF11F86D
:1048D000013B00F8013BF8D870470000002200F0CF
:1048E000F7B80000002200F00DB9000010B50C462A
:1048F000FFF76EFE5F4A1178002903BF111D0123E7
:10490000137000214C6181620FF21D0141600FF2B2
:104910001D0181605849C1600FF2410101610FF230
:10492000BD01416110BD000000BF00BF816A0022CF
:10493000028342838283C283028480F822200A6039
:104940004A600A810A820A734A73806A42695088FF
:10495000C88100208874C8747047000030B400F12A
:104960002402536814681A89012A1BD95D681A68E1
:1049700055195D60EA1305EB12452D14C583628954
:10498000B0F91E50554305EB850490F823506400A0
:104990002D0494FBF5F20A80098881831889411E51
:1049A000198117E014D1B3F90A200A808283628941
:1049B000B1F9001002EB82040904640091FBF4F1E8
:1049C00090F8234011FB04F1C1830020188101E01D
:1049D000808B0880587B30BC70470000826A11824F
:1049E0000A4690F82330018392FBF3F2428370472A
:1049F000F0B4134600F12402546817686669227BFC
:104A0000AABB0D041A0010D181837A8902EB8203BC
:104A10005B0095FBF3F390F8235013FB05F3C3837E
:104A2000002020816181F0BC704732885343134AD3
:104A3000A3FB02C6730A5B1C23819BB27A8990F8A0
:104A4000236002EB82077F0095FBF7F5B0F91E703B
:104A500097FBF6F22DB212B2AD1A2D0495FBF3F2CC
:104A6000564326606181B0F91E0000046060F0BC0E
:104A7000704700005C0B002059100010986E1283E4
:104A80000246012001290BD1936A1973936AD3F866
:104A900014C0BCF9021019B95873002082F8220022
:104AA000704701460022896A91F80CC0002300205B
:104AB000BCF1010F497B08BF0122012908BF012376
:104AC0005A4018BF01207047806A0121C1747047A5
:104AD00000B500BF130096469446103928BFA0E8E1
:104AE0000C50FAD85FEA417C28BF0CC048BF40F8A0
:104AF000042BC90728BF20F8022B48BF00F8012B60
:104B000000BD0000401810F0030308D0C91A1FD3DD
:104B1000DB0748BF00F8012D28BF20F8022D130045
:104B200030B414461546103928BF20E93C00FAD8A5
:104B3000490728BF20E90C0048BF40F8042D890030
:104B400028BF20F8022D48BF00F8012D30BC704767
:104B5000C91818BF00F8012DCB0728BF00F8012D98
:104B600070470000DFF800F0ED020010DFF800F001
:104B700099010010DFF800F0850E0010DFF800F05A
:104B800045100010DFF800F08F0E0010DFF800F085
:104B9000050E00102DE9F0430746DFF80057DFF857
:104BA00000670FF2A81900202870A9B04FEA010889
:104BB00069A006F1140400F013FC20650FF2647183
:104BC0000FF25470FBF720FA2064FCF781FBFEF72C
:104BD000BFFF6062FEF7CCFF0FF2DC60FEF740FF24
:104BE000E062FEF751FF00BF88A14846FEF74AFC8D
:104BF0006064FFF701FD0FF20870FFF755FDA0623A
:104C0000626CE16AFFF75BFD8FA14846FFF76EFE1D
:104C10006065FFF7F1FC00BF8CA0FFF7BFFA216CC5
:104C2000636C626D0091A065A16AFFF7C3FA0FF291
:104C3000A060FEF715FF2063FEF726FF0FF2A860C5
:104C4000FEF70EFF6063FEF71FFF00BF0FF2142197
:104C500089A000F0FBFBA063216CFFF729F800BFDF
:104C600086A000F0C5FCE0641296A16B139112A916
:104C7000FFF74AF80FF2082188A000F013FDE06367
:104C8000216CFFF72FF800BF85A000F085FDE065DF
:104C900000F092FD002000F026FA01202074A06AA6
:104CA000FFF7C3FD3061A06AFFF7BFFD0090BDF8BC
:104CB000020020800020FEF7B1F8E061A26A616A7C
:104CC0003346FEF7BBF8A06AFFF79CFD0146E0699A
:104CD0000022FEF7BDF8E06938600020FEF78EF98B
:104CE000216B15910746E06A14900021606B1690C5
:104CF000276217911B91206C1890A06D1990606C21
:104D00001A90219122912491259126912791542244
:104D1000606D1C90A06A1D90606A1E90E06B1F90F1
:104D2000A06B2090E06C2390289114A983B0684672
:104D3000FFF790FD0EBC3846FEF774F9206AC8F8FC
:104D4000000029B001202870BDE8F0830800FD05AF
:104D500000000300FFFF30750977B57E137ED77C16
:104D6000A37B797AE779C878B277A3769B751975B2
:104D70001B7424733272BC71D370EF6F116FA46E09
:104D8000CE6DFC6C2F6CCA6B036B416A836925691D
:104D90006D68B86707675A6604665C65B764156432
:104DA000C56327638C62F461A96116618460F55F55
:104DB000AF5F245F9B5E145ED25D4F5DCE5C4F5C47
:104DC000D25B945B1A5BA25A2B5AF1597D590B594D
:104DD0009B586358F55789571E57EA5681561A56FD
:104DE000B55582551F55BD545C54FC53000000005E
:104DF00000000000000000000000000000000000B3
:104E0000000000000000000037000000B80500B0FE
:104E10009C03C270200400400020000067052000B1
:104E20000040FFFFFFFFFF7F01000080FF7F018048
:104E30000E00100040400C00110FFA00010340402A
:104E4000FD050E000D000600C800EE02C80000407F
:104E5000607000080300FA007D000100CF05F40136
:104E600000000000050000000004004800200400CD
:104E70000600AAAAFF3F0000000020009BFC0100E2
:104E8000040000000000004808000400FA007FE968
:104E9000A8D78F00D75100001900000000000000C3
:104EA000307510B5DFF8F413DFF8F8030B78012B39
:104EB00019D101228021FDF71AF8DFF8E443208D93
:104EC00010B1218D481E02E000F014F80920208561
:104ED000608D10B1618D481E6085A08D48B1A18D97
:104EE000481EA08510BDBDE8104000228021FCF7BF
:104EF000FEBF10BD2DE9FC410020DFF8A453ADF842
:104F0000020005F124040DF10201606BFFF785FB3F
:104F10000646E06BFEF711FF6069FDF7B3F8C01EAF
:104F20000F2800F2DE80DFE800F008459EB1BFCD1B
:104F3000D1DCDCDCDCDCDC0F1922206BFCF707FAAF
:104F40001420E0801021C9E0E088002840F0C980EA
:104F5000206B0021FCF7D9F91121BFE0206B012162
:104F6000FCF7D3F9002800F0BC801221B6E0012044
:104F70002070616CA069FFF7B8FBE068FDF7E2FF05
:104F80000146A06CFFF786F9DFF81C1300200870BB
:104F9000606BFFF73CFB60690421FEF7EFFD012821
:104FA00040F09F80002000F09EF8206BFCF7A8F9ED
:104FB000BDE8F381A06CDFF8F062FFF7B7F928B91C
:104FC000606900221021FEF73DFE08E0307830B91C
:104FD000A069FFF7EBFBB5F91410288269826946D6
:104FE000606CFFF71AFB0746BDF90010606BFEF717
:104FF00057FC0146606CFFF743FD8046606CFFF78D
:1050000050FD002830781AD0E8B9606BFDF73EF803
:1050100001466868FFF7A6FD0190E06C00F0CCFB4C
:10502000B5F91010E06C002200F0E3FBBDF90410AC
:10503000E06C192200F0DDFB0120307003E0012854
:1050400004BF00213170B8F1000F18BF012F48D103
:10505000E069FEF74AFDB5F910104143E069FEF73B
:1050600040FD05213AE0616BA069FFF73EFB00209F
:1050700000F061F860690621FEF780FDA069FFF786
:10508000E0FBE068FDF718FFBDE8F381E068FDF79D
:1050900013FF002000F04FF81EBB606900222021A2
:1050A000FEF7D0FDBDE8F381206BFCF724F900206A
:1050B00000F019F8E06BFEF72EFE4FF448702081E7
:1050C00008210BE0208960B9092107E0616CA06923
:1050D000FFF70BFB606CFFF79AFA00216069FEF79F
:1050E0004DFDBDE8F38110B50FF2C4110FF2C412EB
:1050F0006B4B09681268262414FB00F41C442160E1
:105100006160E1602161C4F816200021E183C4F8E8
:105110001A20218403EB8004606CFEF7E2FCA06C93
:105120000021FEF7DEFCE06BFFF7E3FA606DBDE8FF
:105130001040FCF7E0B810B52621594A11FB00F1E8
:10514000541894F8241031B902EB8002D06BFFF7A9
:105150002DFBE083208210BD38B55349504C0A78AE
:10516000D4F81A0084B0012A019007D1206F00F012
:1051700083FB18B9206F00F028FB20820020FFF786
:10518000F5FC012805D1A06B00220121FEF75AFD94
:1051900025E060680290E06CFFF7ECFCADF80C00D5
:1051A000E06EFFF7EBFC0546A06D01A9FFF7EAFCF6
:1051B000A06DFFF7EBFC15B9A06DFEF7EFFDA06B3E
:1051C000FCF760FF042818BF052808D1A06DFCF784
:1051D0005DFFADF800006946A06EFFF7D3FC00202C
:1051E00005B030BD10B5002000F00DF82F4C6078F0
:1051F000012807D12A4A2178506DFCF7ADF860806C
:105200000220607010BDF8B50446254800EB840507
:10521000286DFEF769FD0646686DFCF7A3F80746A2
:10522000E86CFEF747FD07433E43F04382B2A86BAC
:105230003146FEF707FDA86BFCF724FF0A2802D0D1
:105240000B2801D0F1BD00E00AE0686DFCF753F8CF
:105250002046FFF748FF286EBDE8F240FEF75BBD31
:10526000686DBDE8F240FCF746B80146002009B978
:105270000B48006B70470146002009B90848406B95
:10528000704710B5064C606DFCF735F8A06BBDE8B3
:10529000104000228021FEF7D5BC0000FD0B00204D
:1052A000FC080020002C0140FC0B0020F00B00202B
:1052B0000000000000000000C00A170B40000008BA
:1052C00000987A00006885FF530FADF006000B00D0
:1052D000070C05080010002000E0FF0F002000F080
:1052E000FF7F01800C000D00070C05080010002056
:1052F00000E0FF0F002000F0FF7F01800C000D0098
:10530000C800350500000000CBFA980868F70100D6
:10531000FA00000000000000600900001C001200FC
:105320001200000000000100000000100101000058
:1053300001020001000000480100030200000048D3
:1053400002000303000000480400030039000100CC
:1053500081002200002C014000000000000000003D
:1053600000000048000100000000000000000048AC
:1053700000020000000000000000004800040000DF
:1053800001000800000000480008000208000000BA
:10539000000000480010000208000000000400485F
:1053A0000200000200000000002000000008004889
:1053B00008000606060606060206020000000000B7
:1053C0000008004808000003946F0008C86F000838
:1053D000FC6F0008000000008B2E165D00040050DA
:1053E000054A01461078002803BF101D01231370E1
:1053F0000020016070470000E80B002013B400910A
:105400000068BDF90420BDF90610048812FB02F300
:1054100011FB013364439C4215D2841C90F8B00008
:105420001B0E1B1ADBB234F81300424341439313A3
:10543000881302EB534201EB5041D213C913ADF86C
:105440000020ADF80210009816BC704710B50C464D
:10545000FEF720FC094A1178002903BF111D012322
:10546000137000214C6181610FF2150101600FF290
:10547000610141600FF27101816010BD400B00209D
:1054800078B5044683B00D46A1694E6901A8FCF7C2
:105490007DF93189019103208DF8080001A9706818
:1054A000FCF73CF9A069056030788DF800002846CB
:1054B000B17A8DF801100099FBF752FF204600F0F9
:1054C00007F8B089072800DBFEE704B070BD0000D4
:1054D00081694A69D389128AD2185208C281002090
:1054E00008744874704700002DE9F84F044684B0F2
:1054F000A56900950020039081466E69B6F80CA05E
:10550000CDF804A083464FF6FF7002900BE01FFA1F
:1055100088F8404598BF8046BFB2B84200D30746DE
:105520000BF1010B81445FFA8BF0504533DA31788F
:105530002868FBF711FF029A9042F4D05FFA8BF2D1
:10554000002AE4D18046EAE7061D36F8176089197B
:10555000964298BF32469E4228BF33466D1C467C19
:10556000EFB2B742F0D3C91A891AB61EB1FBF6F0F2
:10557000E081A0694069E189C2898A4238BF02207E
:1055800004D3008A814234BF042000202082208A74
:1055900005B0BDE8F08FBFB2A9EB07071FFA88F08E
:1055A0003F1AAAF10201B7FBF1F0A08100990A1D90
:1055B000097C22F81100009A117C491C1174C9B2AF
:1055C000019B994202DB009A002111740099019B12
:1055D000497C994202DA009A491C517400994A7C2C
:1055E000032AC5D308468288039913460025B6E7E7
:1055F00010B50446FEF77CFB274A1178002903BF4B
:10560000111D0123137000218C60C0F814110FF2DA
:10561000150101600FF21D0141600FF21D01816053
:1056200010BD0000D0F814010A68026049684160AA
:10563000704700007047000070B5D0F81401016891
:10564000B1F90E308468B1F90C20B1F91650B1F9F6
:105650001810406812FB05F513FB01F6FEF72CFB52
:10566000226875195043E91305EB11450B490C4CA1
:1056700080FB012188112D1400EBD070454305EB10
:1056800045035B0083FB0454A01000EBD070C413EF
:1056900000EB1440001470BDAC0B0020B5814E1B14
:1056A0006766666610B50C46FEF70EFB0B4A11786E
:1056B000002903BF111D0123137000218C6081613B
:1056C0000FF21D0101600FF25D0141600FF25D01FB
:1056D00081600FF2A101C16010BD00009C0B002091
:1056E00078B5044683B00D46A1698E6801A8FCF721
:1056F0004DF83189019103208DF8080001A97068E7
:10570000FCF70CF8A069056030788DF80000284699
:10571000B17A8DF801100099FBF722FE002020825B
:1057200004B070BD002101827047000038B5044606
:10573000A069856800682978FBF710FE4FF6FF71B5
:10574000884207D0A989238A4A1E03FB0200B0FBC6
:10575000F1F02082A0698068218AC2898A4238BF1C
:10576000082004D3008A814234BF0020608A60820E
:10577000608A32BD81698968008A4A69821AB1F9F2
:1057800012004243D01302EB1042B1F9180000EBB3
:10579000224000B270470000354A1378042B0146BE
:1057A00007D2C3EBC30C02EB8C005B1C001D137013
:1057B00000E00020416100E000BF00210160416085
:1057C0008160C16001210161704783680268012B1B
:1057D00004D9C1685B1E8A18836005E004D1426861
:1057E00001694A43002181600260006992FBF0F088
:1057F00070472DE9F84F05460E46286829696F69FC
:10580000140090FBF1F808D1304600F03BF8286115
:1058100046432E600020A86025E0A6EB0809484614
:1058200000F030F88246404600F02CF883463046BF
:1058300000F028F8DA4528BFDA46824588BF82465C
:10584000C5F810A00AFB08F028606E603888094A85
:105850004443A4FB02212869490A491C00FB09F2C0
:10586000A96092FBF1F0E8600120BDE8F28F000032
:1058700070090020986E128301460020896801B9E2
:1058800001207047010048BF494201220120C2F1B6
:105890001F0300FA03F38B4203D3521CD3B2202B15
:1058A000F5D3511E8840704710B50C46FCF7F2FB4B
:1058B000DFF810241178002903BF111D0123137094
:1058C0000021C1F89040416410BD10B5044608465F
:1058D000616C41F8880B4A600B60214600F09CFA2D
:1058E0002046BDE81040FFE710B5446C206800F08A
:1058F0006FFB802104F18403221D84F884100021B1
:105900002068BDE8104000F089BA10B5EDE700004E
:105910002DE9F84381468AB00E46D9F8444075090E
:105920001746984619D06D1E2A460021FCF7DAFB6F
:1059300048B90B208DF80400012301AAFF2120683B
:1059400000F08BFAC4E104F1880006F01F064068FD
:1059500018B12A460021FCF7C5FB0B2E00F2B081DE
:10596000DFE816F00C000D0071000501AE01AE017C
:105970000D012F0142016F018F019D01DCE7397894
:1059800005208DF80400080028D0C81E3CD0801ED9
:105990000A2846D90B38012848D9001F042840D9C5
:1059A000083833D0401E39D024383AD0401F02285E
:1059B0003CD9093835D0001F062832D9083835D0EF
:1059C000801F2ED0C01E01282BD910381CD0401E9D
:1059D000042884BF0838012828D932E004F188005F
:1059E0007D7840682A460021FCF77CFB2A4600218E
:1059F0004846FCF777FB00289ED000230022206851
:105A0000F02100F02AFA63E17A78F1E77A78002150
:105A100004F188004068FDF7F3F9EEE77A78012198
:105A2000F6E77878BA7800EB0222E1E77878BA787E
:105A30003B7900EB0222F87802EB004202EB0362B2
:105A4000D6E7022076E73978032208008DF8042093
:105A500048D0481E00F07F80401E012842D9801E99
:105A600079D0401E16286AD9173847D0401E54D026
:105A7000401E70D0401E022861D9C01E32D01F388F
:105A80005DD0401F022866D9C01E032857D9001FC9
:105A900028D0401E5FD0401E0A2850D90B3821D094
:105AA000401E58D0801E042884BFC01F012846D93C
:105AB000801E012816D9801E04284CD9401F11D001
:105AC000401E01283BD9801E45D0801E012836D9B2
:105AD000801E07D0401E0A283DD90B3802D0801EF8
