:020000040800F2
:10000000F0FF0420417F0308490201084D02010866
:100010005D0201086D0201087D0201080000000078
:100020000000000000000000000000008D02010838
:1000300091020108000000009502010899020108E0
:10004000917F0308917F0308917F0308917F030844
:10005000917F0308917F0308917F0308917F030834
:10006000917F0308917F0308917F0308917F030824
:10007000917F0308917F0308917F0308917F030814
:10008000917F0308917F0308917F0308917F030804
:1000900059040108917F0308917F0308917F0308A9
:1000A000917F0308917F0308917F0308917F0308E4
:1000B000917F0308917F0308917F0308917F0308D4
:1000C000917F0308917F0308917F0308917F0308C4
:1000D000917F0308917F0308917F0308917F0308B4
:1000E000E5FD0008917F0308917F0308917F0308D5
:1000F000917F0308917F0308917F0308917F030894
:10010000917F0308917F0308917F0308917F030883
:10011000917F0308917F0308917F0308917F030873
:10012000917F0308917F0308917F0308917F030863
:10013000917F0308917F0308917F0308917F030853
:10014000917F0308917F0308917F0308917F030843
:10015000917F0308917F0308917F0308917F030833
:10016000917F0308917F0308917F0308917F030823
:10017000917F0308917F0308917F0308000000002E
:10018000917F0308917F0308917F0308917F030803
:10019000917F0308917F0308917F0308917F0308F3
:1001A000B9FA0008917F030829020108917F03082A
:1001B000917F0308917F0308917F0308917F0308D3
:0801C000917F0308917F030801
:1002000010B5054C237833B9044B13B10448AFF350
:1002100000800123237010BD4C0A00200000000064
:100220006019040808B5034B1BB103490348AFF339
:10023000008008BD00000000500A0020601904087A
:10024000154B002B08BF134B9D46A3F5803A0021A8
:100250008B460F461348144A121A38F091F80F4B88
:10026000002B00D098470E4B002B00D09847002061
:10027000002104000D000D48002802D00C483AF07F
:1002800017FC37F0F5FF2000290037F083FE37F028
:10029000BDFF00BF000008000000000000000000DB
:1002A000000000004C0A00209C130020B1AA0308A3
:1002B00029BE0308F49D0408000000204C0A002019
:1002C0004C0A00209C130020704700BF08B50FF0B7
:1002D000BBFD0248BDE808400FF088BDC902000818
:1002E000704700BF0020704708B90FF0B5BD0FF090
:1002F000AFBD00BFB0B100F5007100B5C1B06A4636
:1003000030F8023B2BB1814203D002F8013B0028B8
:10031000F6D100236946044813700EF035FC41B055
:100320005DF804FB704700BF0876040840F20272D3
:1003300003469042F0B41CD040F20172904201D0CA
:10034000F0BC7047134A0825134800241768042698
:100350001168026B29411775517521469660D48248
:100360001483548313605360C2E90345F0BC11F059
:10037000D5BE0948002404260825026B2146966054
:10038000C2E90345C2E90544C2E90033F0BC11F0FB
:10039000C5BE00BF680A00205411002008B50FF048
:1003A000E3FF0248BDE808400EF0EEBB1C760408EF
:1003B00010B5044604480EF0E7FB044B40F2017010
:1003C0001C60BDE81040B1E730760408680A0020E0
:1003D00040F20270AAE700BF014B5868704700BFA7
:1003E000680A0020014B9868704700BF680A002027
:1003F000014BD868704700BF680A0020014B18699C
:10040000704700BF680A0020014B5869704700BF61
:10041000680A00204368B3F5C06F08D040F201625B
:10042000934203D14269084B9A607047704730B4D9
:10043000054B858A448B018BC28ADD605C60596103
:100440001A6130BC704700BF680A0020B0F5E06F49
:1004500000D06BE702461148114B002180691B6BED
:10046000012830B44FF004054FF00804C3E900221E
:100470009D60C3E903140DD01975002208485A7510
:1004800011469A75DA751A765A769A76DA7630BC0B
:1004900011F044BEAA221A75EFE700BF680A0020D7
:1004A0005411002010B5044605480EF06DFB054BB5
:1004B0004FF4E0609C61BDE81040FFF7C7BF00BF8C
:1004C00040760408680A002084B001A804B080E8DF
:1004D0000E00704782B08DE80C0002B0704700BF7C
:1004E0000020704784B0002010B402AC84E80E00F5
:1004F0005DF8044B04B0704782B010B400240DF1D5
:10050000040CC0E900445DF8044B8CE80C0002B018
:10051000704700BF82B002AB03E9060002B070472B
:100520000022C0E90022C0E902227047283110B43D
:1005300004460FC984E80F0020465DF8044B70475D
:1005400081F30801C36C8B4216D070B5856986B003
:10055000C1647DB1C369DB070CD5283002AC2E68BD
:100560000FC884E80F00059B28460093356E94E879
:100570000E00A84706B070BD704700BF82B002AB46
:1005800003E9060002B07047704700BF704700BF24
:1005900003681B6A184700BF10B5044622F076FDB9
:1005A000034940F2031214232160E261636210BD2B
:1005B0000000009010B5044622F068FD40F20311DF
:1005C0001422024BE1616262236010BD480000907A
:1005D00038B5044622F05AFD14210A4A40F21B1392
:1005E0004FF47A7508206162226000214FF0FF32DB
:1005F000E3610123C4E92950C4E92B12C4E92D3376
:1006000038BD00BFA000009010B5044622F03EFDAA
:1006100040F203111422024BE1616262236010BDBB
:10062000F800009010B5044622F030FD1420044973
:1006300040F20322002360622160E261636410BD26
:100640004401009010B5044622F020FD014B2360C8
:1006500010BD00BF9001009010B5044622F016FDB9
:10066000014B236010BD00BFB401009010B50446DB
:1006700022F00CFD014B236010BD00BFD80100909B
:1006800010B5044622F002FD014B236010BD00BFEF
:10069000FC01009010B5044622F0F8FC024A4FF429
:1006A0007A732260236210BD2002009022F0F8BC11
:1006B00022F0F6BC22F0F4BC22F0F2BC22F0F0BC36
:1006C00022F0EEBC22F0ECBC22F0EABC22F0E8BC46
:1006D00022F0E6BC22F0E4BC22F0E2BC22F0E0BC56
:1006E00022F0DEBC22F0DCBC22F0DABC22F0D8BC66
:1006F00022F0D6BC10B5044622F0D2FC04F164000E
:10070000BDE8104022F0CCBC014B036022F0DABC03
:1007100000000090014B036022F0D4BC0000009068
:10072000014B036022F0CEBC00000090014B03603F
:1007300022F0C8BC00000090014B036022F0C2BC54
:1007400000000090014B036022F0BCBC0000009050
:10075000014B036022F0B6BC48020090014B0360DD
:1007600022F0B0BC48020090014B036022F0AABC0A
:1007700048020090014B036022F0A4BC48020090A4
:10078000014B036022F09EBC48020090014B0360C5
:1007900022F098BC6C020090014B036022F092BCE6
:1007A00090010090014B036022F08CBCB4010090DA
:1007B000014B036022F086BCD8010090014B03601E
:1007C00022F080BCD8010090036910B504464BB1FB
:1007D000194AD9681268914204D019681846DA603B
:1007E000CB69984763694BB1134AD9681268914243
:1007F00004D019681846DA60CB699847A3694BB1F1
:100800000D4AD9681268914204D019681846DA6016
:10081000CB699847236A4BB1074AD968126891425D
:1008200004D019681846DA60CB6998472046BDE8BD
:10083000104022F037BC00BFEC0D0020FFF7C4BF12
:10084000436F10B504464BB1274AD96812689142EC
:1008500004D019681846DA60CB699847E36F4BB14A
:10086000214AD9681268914204D019681846DA60A2
:10087000CB699847D4F884304BB11B4AD9681268C9
:10088000914204D019681846DA60CB699847D4F8C9
:100890008C304BB1144AD9681268914204D019685F
:1008A0001846DA60CB699847D4F894304BB10E4AB9
:1008B000D9681268914204D019681846DA60CB6989
:1008C0009847D4F89C304BB1074AD96812689142D6
:1008D00004D019681846DA60CB6998472046BDE80D
:1008E0001040FFF771BF00BFEC0D0020FFF76CBF99
:1008F000836B10B504464BB11F4AD9681268914208
:1009000004D019681846DA60CB699847E36B4BB19D
:10091000194AD9681268914204D019681846DA60F9
:10092000CB699847236C4BB1134AD968126891423E
:1009300004D019681846DA60CB699847636C4BB1EC
:100940000D4AD9681268914204D019681846DA60D5
:10095000CB699847A36C4BB1074AD968126891429A
:1009600004D019681846DA60CB6998472046BDE87C
:100970001040FFF729BF00BFEC0D0020FFF724BF98
:1009800022F090BB22F08EBB836910B504464BB1B8
:10099000074AD9681268914204D019681846DA608B
:1009A000CB6998472046BDE8104022F07BBB00BFD2
:1009B000EC0D002022F076BB22F074BB436910B529
:1009C00004464BB1194AD9681268914204D019689B
:1009D0001846DA60CB699847236A4BB1134AD96845
:1009E0001268914204D019681846DA60CB699847BA
:1009F000A36A4BB10D4AD9681268914204D01968B4
:100A00001846DA60CB699847236B4BB1074AD9681F
:100A10001268914204D019681846DA60CB69984789
:100A20002046BDE8104022F03DBB00BFEC0D002089
:100A3000C36910B504464BB1074AD96812689142A0
:100A400004D019681846DA60CB6998472046BDE89B
:100A5000104022F027BB00BFEC0D0020036910B549
:100A600004464BB1074AD9681268914204D019680C
:100A70001846DA60CB6998472046BDE8104022F05E
:100A800011BB00BFEC0D0020036B10B504464BB149
:100A9000074AD9681268914204D019681846DA608A
:100AA000CB6998472046BDE8104022F0FBBA00BF52
:100AB000EC0D0020FFF7E8BF22F0F4BA836910B50F
:100AC00004464BB1074AD9681268914204D01968AC
:100AD0001846DA60CB6998472046BDE8104022F0FE
:100AE000E1BA00BFEC0D002038B5846954B1064D61
:100AF00001E0A46934B12946204622F029FC0028EF
:100B0000F7D038BD002038BD9002009084B02DE9A8
:100B1000F04107AC80460E480B9F84E80E00002190
:100B200022F0D2FA08F12803054600F1200600F170
:100B3000100C0FCB8CE80F0094E80F0086E80F0034
:100B40002F63C8F82050BDE8F04104B0704700BFE3
:100B5000D801009084B02DE9F04184B004462248C9
:100B60000BAEE8460F9F86E80E00002122F0ACFA9B
:100B7000002223680546214640462262DB6B9847E7
:100B800005F1100E05F1200C98E80F0004F1400863
:100B90008EE80F0096E80F0005F1500E05F14006B3
:100BA0008CE80F0098E8030004F138032F6305F187
:100BB000480C04F1300704F128028EE8030093E8A2
:100BC000030005F138038CE8030097E8030086E88A
:100BD000030092E8030083E80300256204B0BDE847
:100BE000F04104B0704700BFFC01009082B02DE9D5
:100BF000F04FA1B00D46B8492C9C069005942D9C51
:100C0000029207942AACDDF8B8A084E80C002B9B74
:100C1000D5E9080B039322F09BFB04462D9B0CA8FF
:100C2000D4E90489D4E906760093A7EB0803089376
:100C3000A6EB090304932AAB0ECB22F0F7FFBAF11F
:100C4000000F00F04B810AF1FF3ABAF1030F12D8FE
:100C5000DFE81AF090019D01A2010400059F1BF03E
:100C6000020F089AA7EB020800F09F81039B079EE2
:100C70009946F21A0492BAF1010F40F2B980B145D7
:100C8000B8BFB8452269A669A7EB0801049BA8BFB5
:100C90004FF0010CD4F814A0A6EB020603F1FF33C9
:100CA000E769079101F1FF31B8BF4FF0000C0393E2
:100CB000013E236D606DA7EB0A07029108BF012674
:100CC000991A013F039B0592A0EB0A02029808BF04
:100CD000012703FB02F200FB01F1E86984F834C04C
:100CE000C30591FBF6F192FBF7F241444A4400F14F
:100CF000948010AB0DF1480B1846089322F066FD66
:100D0000089B0DF1780C2A6893E80300136D8CE8BA
:100D1000030028469CE806009847059B5846D4E9FE
:100D20001212C91AA2EB0A02039B03FB02F2029BF6
:100D300003FB01F192FBF7F291FBF6F14A444144C7
:100D400022F044FD1CAA2B689BE80300DB6C0DF12C
:100D5000580B82E80300284606CA9847059B14A84A
:100D6000D4E91012C91AA2EB0A02039B03FB02F298
:100D7000029B03FB01F192FBF7F291FBF6F14A446F
:100D8000414422F023FD14A91AAA2B6803C99B6CC5
:100D900082E80300284606CA9847059B5846D4E9CE
:100DA0000E12C91AA2EB0A02039B03FB02F2029B7A
:100DB00003FB01F192FBF7F291FBF6F14A44414447
:100DC00022F004FD18AA2B689BE803005B6C82E804
:100DD0000300284606CA98472C62049ADDE90601FA
:100DE00022F0F4FC069821B0BDE8F04F02B0704745
:100DF0001BF0010F40F0E7801BF0040F0BF008031D
:100E00000BF0040200F01781002B40F01481089BC6
:100E10001F46029B1F44984631E70DF1280B5846A8
:100E200022F0D4FC0599039805F1400CD4E9123264
:100E30005B1AA2EB0A02029900FB02F201FB03F328
:100E400092FBF7F293FBF6F39BE803004A448CE82D
:100E5000030003EB0801584622F0B8FC05990398FB
:100E600005F1380CD4E910325B1AA2EB0A020299A0
:100E700000FB02F201FB03F392FBF7F293FBF6F3A4
:100E80009BE803004A448CE8030003EB0801584642
:100E900022F09CFC059805F130032835D4E90E12A8
:100EA000091AA2EB0A02039800FB02F2029800FB67
:100EB00001F192FBF7F291FBF6F69BE803004A443E
:100EC00083E8030006EB0801584622F07FFC9BE80C
:100ED000030085E8030080E7FC010090E26A04F16A
:100EE00020030EA8DDF830A000920D9A09920ECBD7
:100EF00022F09CFEA16AE26A7F1AA6EB020C0F9E0A
:100F0000D4E90830A8EB03080E9BA9EB00099A4529
:100F100076D00BF001021BF0040F0BF008015FFA12
:100F200082FE54D002988044002940F0EE80BEF149
:100F3000000F40F0F880089B43441F46099BB342D2
:100F400055D01BF0100F0BF020030BF00201CBF378
:100F500040025BD1002B77D0002A75D1039A9144CF
:100F6000079A62441646002B00F08180049BA6EB92
:100F7000030984E6049B1E46039B1E449946A6EB88
:100F80000903BAF1010F04933FF679AE30E7079EEB
:100F9000049AA6EB0209F2E7029B1BF0020F089AE3
:100FA000984602EB03077FF461AE1BF0100F0BF0C5
:100FB00020030BF0100235D0002B33D1DDE90332D2
:100FC000D618994657E6059FDDF8088057E60029B0
:100FD00056D0BEF1000F53D1029B9844059B3B4471
:100FE0001F46002AAAD1089BA7EB0308A6E7039B8C
:100FF0009944079B63441E46A6EB090304933EE60F
:10100000029B9844059B3B441F4697E7039A9144F3
:10101000002B40F08180002940F09080049B03EB7E
:1010200009062CE6002B61D0002A5FD1079E049AA6
:10103000A6EB02091FE6002B49D0002A47D1059FE5
:10104000089AA7EB02081AE6099A02FB09F9039A23
:1010500099FBF6F99144002B33D1099B03FB0CF269
:10106000079B92FBF6F633441E460029C4D1A6EB3B
:101070000906049BF61A48BF013609EB6609CDE75D
:101080000AFB08F8029898FBF3F8804491B90AFB30
:1010900007F797FBF3F7059B3B441F46002A7FF4B5
:1010A0004DAFA7EB0807089BFF1A48BF013708EBB5
:1010B000670840E7059B3B441F46002A7FF43EAF8C
:1010C00091E7079A62441646002995D14BE72AAB6F
:1010D0000FCB22F091FD089BC01A029B48BF013044
:1010E00003EB6008089B43441F46C8E52AAB0FCBBF
:1010F00022F078FD049BC01A039B48BF013003EB2C
:101100006009049B03EB0906B5E5059B3B441F46BC
:10111000002A7FF413AFC4E7079B63441E460029EF
:101120007FF46AAFA3E70AFB07F797FBF3F7059B8A
:101130003B441F46002A3FF4FEAEFFE6099B03FB3B
:101140000CF2079B92FBF6F633441E4654E700BFB1
:101150002DE9F04196B0044604AD85E80600002B69
:1011600057D106AD059900F14002049B2846009135
:1011700008AF0AAE06CA22F05BFB14AB226895E802
:101180000300156D83E80300204693E80600A84796
:10119000059B04F13802384600930CAD049B06CA47
:1011A00022F046FB12AB226897E80300D76C83E875
:1011B0000300204693E80600B847059B04F130027F
:1011C00030460093049B06CA22F032FB10AB226823
:1011D00096E80300966C83E80300204693E8060037
:1011E000B047059B04F1280228460093049B06CAD9
:1011F00022F01EFB22680EAB95E80300556C83E8D5
:101200000300204693E806002B4616B0BDE8F041E7
:10121000184702AD059A00F140080B462846009297
:1012200004F1380704F13006283498E8060022F06B
:10123000FFFADDE90432009295E8030088E8030034
:10124000284697E8060022F0F3FADDE9043200921E
:1012500095E8030087E80300284696E8060022F098
:10126000E7FADDE90432009295E8030086E803001E
:10127000284694E8060022F0DBFA95E8030084E8AB
:10128000030016B0BDE8F08182B02DE9F04F0D46A5
:101290009DB02C6A04912999D5F824A00891039057
:1012A00010A80592D4E90468D4E906790091B91B25
:1012B000A9EB080B09912899079126A981E80C0050
:1012C000279D0EC9069522F0B1FC2A9B002B70D0F9
:1012D0002A9B013B1D46032B11D8DFE803F0B1BC6C
:1012E000C102079F1AF0020F099BA7EB030600F04B
:1012F000BF80089B06999946A3EB010B8846012DF8
:101300002B4632D9C845B8BFBE42049DACBF0123AD
:10131000002384F83430EB69DB053BD40DF1500A2F
:1013200042463B4631465046CDF8009022F0CCFA7A
:10133000049D0DF1600CD5F800E09AE80F008CE8F0
:101340000F001B9B28460093DEF844809CE80E00AB
:10135000C0472C6203985A46B91B22F037FA03980B
:101360001DB0BDE8F04F02B070471AF0010F40F019
:101370008C801AF0040F0AF008030AF0040200F04F
:10138000B380002B40F0B080099B059E1F4633467A
:101390003744B7E70CAC42463B4631462046CDF8D1
:1013A000009022F091FA283594E80F0085E80F00AC
:1013B000D0E7E26A04F12003109D12A80092119A6E
:1013C0000B950A920ECB22F031FCA16AE26A7F1AD9
:1013D000DDF84CC0A9EB0209D4E90830F61A129BDB
:1013E000A8EB00089D4267D00AF001021AF0040F32
:1013F0000AF00801D0B24BD0059D2E44002940F0E0
:10140000DB80002840F0E480099B33441F460A9BA0
:1014100063454AD01AF0100F0AF020030AF00201C7
:10142000CAF340024DD1002B66D0002A64D1069A3F
:101430009044089A9144002B71D0A9EB0B0861E706
:10144000069B0BEB03099846012DA9EB080B2B46D5
:101450003FF658AF89E7089BA3EB0B089946F3E7E3
:10146000099B1AF0020F059E03EB06077FF441AFBC
:101470001AF0100F0AF020030AF010022BD053BB11
:10148000069B0BEB0309984639E7079F059E39E752
:1014900000294ED000284CD1059B1E44079B1F44B9
:1014A000002AB4D1099BFE1AB1E7069B9844089B19
:1014B0009944A9EB080B25E7059B1E44079B1F4495
:1014C000A5E7069A9044002B7CD1002940F08C803F
:1014D0000BEB080916E7002B60D0002A5ED1089BB1
:1014E000A3EB0B0899460AE7002B48D0002A46D107
:1014F000079F099BFE1A05E70A9A02FB08F8069A5D
:1015000098FBFCF89044002B34D10A9B03FB09F9AB
:10151000089B99FBFCF94B4499460029C9D1A9EBDA
:101520000809B9EB0B0948BF09F1010908EB690883
:10153000CEE70B9800FB06F6059896FBF3F60644FB
:1015400091B90B9901FB07F191FBF3F7079B3B4422
:101550001F46002A7FF45BAFBF1B099BFF1A48BFE1
:10156000013706EB67064FE7079B1F44002A7FF40D
:101570004EAF97E7089A914400299AD15BE726ABD2
:101580000FCB22F039FB099BC01A059B48BF0130E5
:1015900003EB6006099B33441F46B3E626AB0FCB33
:1015A00022F020FBB0EB0B00069B48BF013003EBA1
:1015B00060080BEB0809A2E6079B1F44002A7FF492
:1015C00026AFC9E7089B994400297FF472AFA6E7CC
:1015D0000B9901FB07F191FBF3F7079B3B441F4677
:1015E000002A3FF411AF12E70A9B03FB09F9089B9D
:1015F00099FBFCF94B4499465BE700BF2DE9F041AC
:1016000096B000F12807044602AD85E8060097E889
:101610000C0095E8030022F0DDF8002845D0A6690B
:10162000002E45D0E36913F001025DD00DF11808DA
:10163000236821464046DB6B98470DF1380CD6F8FD
:1016400000E098E80F008CE80F00119B30460093F3
:10165000DEF860609CE80E00B0470023A6692362B4
:1016600095E8030087E80300FEB1E369DD0717D5BD
:101670000AAF2368214612AD3846DB6B9847D6F88F
:1016800000C097E80F0085E80F00159B30460093D7
:10169000DCF8606095E80E00B047A6692EB1E369FA
:1016A000580502D5F26991040AD516B0BDE8F0815B
:1016B00095E80300266287E8030016B0BDE8F081D4
:1016C00043F4006304AD42F480423146E3612846AE
:1016D000F261084A23F01CF9224695E8030016B08F
:1016E000BDE8F04123F05AB995E80300226287E88B
:1016F0000300BBE7953700082DE9F04196B000F1F3
:101700003007044602AD85E8060097E80C0095E82E
:10171000030022F05FF8002845D0A669002E45D0CE
:10172000E36913F001025DD00DF11808236821462A
:101730004046DB6B98470DF1380CD6F800E098E88E
:101740000F008CE80F00119B30460093DEF86060BC
:101750009CE80E00B0470023A669236295E80300C9
:1017600087E80300FEB1E369DD0717D50AAF2368F8
:10177000214612AD3846DB6B9847D6F800C097E893
:101780000F0085E80F00159B30460093DCF8606081
:1017900095E80E00B047A6692EB1E369580502D559
:1017A000F26991040AD516B0BDE8F08195E803000E
:1017B000266287E8030016B0BDE8F08143F40063B9
:1017C00004AD42F480423146E3612846F261084AA2
:1017D00023F09EF8224695E8030016B0BDE8F041DC
:1017E00023F0DCB895E80300226287E80300BBE73A
:1017F000953700082DE9F04196B000F1380704460E
:1018000002AD85E8060097E80C0095E8030021F09A
:10181000E1FF002845D0A669002E45D0E36913F00A
:1018200001025DD00DF11808236821464046DB6BAC
:1018300098470DF1380CD6F800E098E80F008CE8D6
:101840000F00119B30460093DEF860609CE80E00AC
:10185000B0470023A669236295E8030087E80300E8
:10186000FEB1E369DD0717D50AAF2368214612AD43
:101870003846DB6B9847D6F800C097E80F0085E83C
:101880000F00159B30460093DCF8606095E80E0071
:10189000B047A6692EB1E369580502D5F2699104F3
:1018A0000AD516B0BDE8F08195E80300266287E806
:1018B000030016B0BDE8F08143F4006304AD42F4C8
:1018C00080423146E3612846F261084A23F020F85D
:1018D000224695E8030016B0BDE8F04123F05EB85B
:1018E00095E80300226287E80300BBE7953700080C
:1018F0002DE9F04196B000F14007044602AD85E8BD
:10190000060097E80C0095E8030021F063FF00282B
:1019100045D0A669002E45D0E36913F001025DD0E1
:101920000DF11808236821464046DB6B98470DF1FE
:10193000380CD6F800E098E80F008CE80F00119BF7
:1019400030460093DEF860609CE80E00B04700234C
:10195000A669236295E8030087E80300FEB1E36906
:10196000DD0717D50AAF2368214612AD3846DB6B79
:101970009847D6F800C097E80F0085E80F00159B40
:1019800030460093DCF8606095E80E00B047A66929
:101990002EB1E369580502D5F26991040AD516B053
:1019A000BDE8F08195E80300266287E8030016B0E1
:1019B000BDE8F08143F4006304AD42F48042314657
:1019C000E3612846F261084A22F0A2FF224695E828
:1019D000030016B0BDE8F04122F0E0BF95E8030037
:1019E000226287E80300BBE795370008F0B593B0A3
:1019F000044608AD85E80600E3B90AAE04F1280301
:101A000095E80300656B01A981E805000095304663
:101A10000EAD0ECB22F0D0F8276896E80F0085E8CF
:101A20000F00119B204600937C6C95E80E00A047A8
:101A300013B0F0BD476B01AB04AE283495E803004A
:101A400083E805003046009794E80E0022F0B4F8D1
:101A500096E80F0084E80F0013B0F0BD84B0F0B535
:101A60008FB000F12805064615AC84E80E0095E815
:101A70000F008DE80F0094E80F0021F047FF0028C9
:101A80003DD0B769002F3FD0D6F81CC01CF0010E26
:101A90005AD00DF1180CD7F800E095E80F008CE84B
:101AA0000F00099B38460093DEF860709CE80E003A
:101AB000B8470023B769336294E80F0085E80F0048
:101AC000EFB1D6F81CC01CF0010F12D00AACD7F849
:101AD00000C095E80F0084E80F000D9B3846009386
:101AE000DCF8605094E80E00A847B7693FB1D6F81B
:101AF0001CC01CF4806F02D0FB699B040ED50FB094
:101B0000BDE8F04004B0704794E80F00376285E804
:101B10000F000FB0BDE8F04004B070474CF4006314
:101B200004AC39460C4AF3612046FB6943F4804318
:101B3000FB6122F0EDFE324694E803000FB0BDE8F1
:101B4000F04004B022F02ABF94E80F00C6F820E06D
:101B500085E80F00B7E700BF9537000884B02DE98E
:101B6000F04FA9B0044601A808AF04F1280810AD51
:101B700006460020E46B786008900696DDF8E4B035
:101B8000C7E9020033A880E80E0098E80F0086E855
:101B90000F0033AB369E28460ECB009621F014FF83
:101BA00095E80F0021F0E6FE002840F0DF800546B2
:101BB000069E369B98E8030086E8030033A800934E
:101BC00090E80E0021F0E2FF002C00F0CF800DF134
:101BD0003008AA46E369590502D5002D00F0A4801B
:101BE000A5425BD003F01803182B53D1236821467C
:101BF0004046DB6B9847A3457CD0E3695B0553D532
:101C0000CDF81CB0069E0DF1600997E80F0086E83C
:101C10000F000F9B4846009398E80E0021F0D4FE79
:101C200099E80F0021F0A6FE002833D13A9B0DF170
:101C3000800CD4F800E00493079B0393389B029335
:101C4000379B019397E80F008CE80F00239B0093CC
:101C50002046DEF830909CE80E00C847646988B1E1
:101C60000369BAF1000F06D0DAF810209A4201DDBC
:101C7000002B00DA504623B929B0BDE8F04F04B07C
:101C800070478246002CA5D1504629B0BDE8F04FE0
:101C900004B070476469002C9CD1F5E70025C7E9C2
:101CA0000055C7E902559DE733AB069E0DF170095B
:101CB0000FCB86E80F000F9B4846009398E80E0074
:101CC00021F082FE99E80F0021F054FE0028E1D1B6
:101CD0005B463A9A0DF1900CD4F800E0CDE903325E
:101CE000389B0293379B019333AB0FCB8CE80F00EB
:101CF000279BACE7DBF81C3013F4806902D000238B
:101D000007937FE733AB069E0FCB86E80F000F9B50
:101D10001CA8009398E80E0021F056FE1CAB0FCBD8
:101D200021F028FE4B46D4E7656915B917E06D69C7
:101D3000ADB1EA699205FAD52B68294614A8DB6B88
:101D4000984714AB069E0FCB86E80F00369B3846AB
:101D5000009333AB0ECB21F037FEE36940E700225E
:101D60003A601546FA60C7E901223BE7002029B036
:101D7000BDE8F04F04B0704784B02DE9F04190B059
:101D800000F12805064617AC84E80E0095E80F0020
:101D90008DE80F0094E80F0021F0B8FD20B910B0D5
:101DA000BDE8F04104B07047736B0DF1100806AF49
:101DB0004046009395E80E0021F038FF1A9B384604
:101DC000009394E80E0021F031FF97E80C0098E8AA
:101DD000030021F0FFFC10F0FF0F2DD0706C58B104
:101DE00097E8060006F0D4FC0021304623F012F8F4
:101DF0000021706C23F00EF81A9B3046009394E893
:101E00000E00FFF72BFE049B002B21DD059A08AD89
:101E1000002A1FDCF36931462846224A43F4A043D6
:101E2000F36122F075FD324695E8030010B0BDE87D
:101E3000F04104B022F0B2BD1A9B3046009394E802
:101E40000E00FFF70BFE10B0BDE8F04104B0704784
:101E500008ADDFE714492846009206C921F03CFD91
:101E6000B46B002CD6D00CAF02E02469002CD1D08A
:101E7000236A002BF9D1636A142BF6D0E36913F4BB
:101E80008063F2D1D4F800C0019395E80F0087E891
:101E90000F000F9B20460093DCF8208097E80E008F
:101EA000C047E2E7953700080003009084B02DE9B1
:101EB000F04794B000F1280506461DAC84E80E00FA
:101EC00095E80F008DE80F0094E80F0021F01EFD4B
:101ED00020B914B0BDE8F04704B070470DF1100808
:101EE000736B0DF1180908AF4046009395E80E009A
:101EF00021F09CFE209B4846009394E80E0021F0C0
:101F000095FE99E80C0098E8030021F063FCF26A62
:101F1000B36A5FFA80F80092384694E8060021F030
:101F200075FC4F4B97E803000CCB21F053FC60B3DA
:101F3000B8F1000F2CD13569DDB1EB69990518D4E2
:101F40000DF1300802E0EB699A0512D413F4806FAA
:101F5000C3F300230AD02A6897E80300D2F8389028
:101F600088E80300284698E80600C8472D69002D38
:101F7000E9D1209B3046009394E80E00FFF76EFDF8
:101F800014B0BDE8F04704B07047B8F1000FF0D0CE
:101F9000049B002B02DD059B002B22DC209B30469E
:101FA000009394E80E00FFF759FDB369002B90D021
:101FB000F269D86942F48052F261820489D40AAC91
:101FC00040F480401946274AD861204622F0A0FC00
:101FD000324694E8030014B0BDE8F04704B022F0A4
:101FE000DDBC06F13803776B01AA0DF1300893E8E8
:101FF000030082E803000097404695E80E0021F0B8
:10200000DBFD3569002DC9D0EB6913F40079C5D12A
:1020100010AF14E0D5F800C0019698E80F0087E8EB
:102020000F00139B28460093DCF820A097E80E00D1
:10203000D0472D69002DB1D0EB699905AED4580574
:10204000F7D52B6A23B11B6BB342F2D0C5F82090B1
:102050006B6A142BDED1736C002BEAD0DAE700BF79
:10206000000300909537000884B02DE9F04F93B03D
:102070001DAC84E80E0000284CD082460546DFF8EF
:10208000F8B00DF1180901AE94E80F0021F072FCD0
:1020900000283FD1AB69D5F844800BB9AA4558D187
:1020A000B8F1000F16D008F12C0797E80F0021F0C7
:1020B00061FC002844D19BF8003083B36A6B05F1C2
:1020C0002803484600920ECB21F0C0FD99E80F008E
:1020D00087E80F00EB69DB071CD505F12807209B7B
:1020E0000DF1280897E8030086E8030040460093B6
:1020F00094E80E0021F060FD97E80F0086E80F00DD
:102100000D9898E80E000090204621F05DFCAD6926
:10211000002DB9D113B0BDE8F04F04B0704794E87A
:102120000F0086E80F00D8F838304846009397E84B
:102130000E0021F087FC99E80F0087E80F00C9E73F
:102140002846002122F066FE0021404622F062FE71
:10215000B1E794E80F000EAE2F6886E80F00119BE0
:10216000284620933C6E96E80E00A44613B0BDE8C6
:10217000F04F04B0604700BF8C0E002038B5026DF0
:102180000446274D2B6842B1D168994205D01168A9
:102190001046D360CB6998472B68E26D42B1D16895
:1021A000994205D011681046D360CB6998472B68D7
:1021B000226F04F164009A4203D0626E2367D369F0
:1021C0009847D4F8F83143B12A68D968914204D0CD
:1021D00019681846DA60CB6998470A2104F513702C
:1021E00021F068F9D4F8A43343B12A68D968914240
:1021F00004D019681846DA60CB699847D4F8FC33E4
:1022000043B12A68D968914204D019681846DA6047
:10221000CB6998472046BDE83840FEF769BB00BF50
:10222000EC0D002010B5044620F030FF024B236077
:102230000CF0D6FC206110BD4802009038B5074C68
:10224000054620F023FF04F5127304F542742B6059
:102250000CF0C6FC2C60286138BD00BF0000009067
:1022600038B5074C054620F011FF04F5127304F54C
:102270004B742B600CF0B4FC2C60286138BD00BF9F
:102280000000009038B5074C054620F0FFFE04F52D
:10229000127304F554742B600CF0A2FC2C602861BE
:1022A00038BD00BF0000009038B5074C054620F04F
:1022B000EDFE04F5127304F55D742B600CF090FCD8
:1022C0002C60286138BD00BF00000090074A0369F8
:1022D00010B5044602600BB121F0B6FF0023204682
:1022E0002361BDE8104020F0EDBE00BF98030090D0
:1022F00038B50446154620F0C9FE044B23601DB1D5
:102300002946204621F06CFF256138BD98030090D6
:1023100010B5074B04460069236008B124F034F877
:10232000002320462361BDE8104020F0CBBE00BF53
:102330002002009038B5074D044605F5247340F897
:10234000643BFFF7E5FF25602046BDE8384020F0FC
:10235000B9BE00BF000000900B6AF0B5054683B01F
:1023600013B193F83430CBBB0B6CD1F828C04C6C54
:102370006345CF6AD1E90C2ED1E90E6036D0934285
:102380001946A8BF11469342B8BF1346744522466A
:10239000A8BF72467445B8BF74466145A8BF614680
:1023A0006345B8BF63468242A8BF0246A042B8BF99
:1023B0002046B142A8BF3146B342B8BF3346BA4205
:1023C000A8BF3A46B842B8BF384601300133009042
:1023D000284621F079FA284603B0F0BD0023C0E971
:1023E0000033C0E90233284603B0F0BD8442C6D1B1
:1023F000B242C4D1BE45C2D1934206DC194613464F
:10240000874204DB02463846DFE71146F8E73A46E2
:10241000DBE700BF70B505460C4641B18B698342CE
:102420001BD1CB6903F01403142B18BF0024A86C34
:10243000A04219D020B10368602200211B6C98478C
:10244000AC648CB1EA692046236812F040021B6C30
:102450000BD12021BDE870401847064823F052F800
:10246000BDE8704020F00ABE70BD00226021BDE8CA
:1024700070401847BC030090D0F8FC338B4200D169
:1024800009B9FFF7C7BF70472DE9F0418EB0F9B128
:102490008F690C46874213D1002A40F3AA800D6948
:1024A0001DB90AE02B6913B11D46013AFAD1631B2D
:1024B0002646B3FA83F35B0993B10EB0BDE8F08111
:1024C000574823F01FF80EB0BDE8F04120F0D6BD0C
:1024D000544823F017F80EB0BDE8F04120F0CEBD0F
:1024E0006169E36940F2014098431A4657D090056C
:1024F0001AD521B1CB6943F40063CB61E36943F49E
:1025000000630DF11008484A3946E3614046FB6913
:1025100043F48043FB6122F0FBF93A4698E803005C
:1025200022F03CFA6169E269236909B10B61236910
:1025300003B15961B96B8C4208BFBB63FB6B9C4212
:102540004CD0AC4206D02B69C4E904352C61236918
:1025500003B15C61B44244D07369C4E9046374613B
:102560006169002943D00C612369002B3CD0D3075B
:10257000A3D50AAD2368214606AC2846DB6B9847F5
:102580003E6895E80F0084E80F00099B38460093E9
:10259000356E94E80E00A8470EB0BDE8F08131B169
:1025A000226A22B1CB6943F40063CB61E36943F44F
:1025B00000630DF108081C4A3946E3614046FB6997
:1025C00043F48043FB6122F0A3F93A4698E8030004
:1025D00022F0E4F9E36961691A4688E76169F96301
:1025E000AFE7D4E9043103B9FC630029BFD1BC6370
:1025F000BDE73FF462AF61690E4609B95DE71E466B
:10260000013202D07369002BF9D1A31B2546B3FA1E
:1026100083F35B09002B3FF464AF0EB0BDE8F0819B
:10262000CC030090C40300909537000838B5C1B1C1
:10263000002A05DDD0F8FC3313B19C69844203D035
:10264000BDE83840FFF720BF0C69A34210D0154603
:1026500001E0002DF4D02469013DA342F9D1521BC1
:10266000EEE7044822F04EFFBDE8384020F006BDFA
:102670000022E5E7C4030090F0B504468BB0C56CBA
:10268000FDF75EFFE36CAB4201D0A3690BB10BB069
:10269000F0BDE369DB07FAD5626B06AE04F12803EF
:1026A00002AD304600920ECB21F0D0FA276896E8B2
:1026B0000F0085E80F00059B204600933C6E95E8CF
:1026C0000E00A047E3E700BFF0B58FB0002955D05A
:1026D0008B690C46002B32D1C36B0546C1E905302E
:1026E00003B11961AB6BEC63002B30D022B12B68C6
:1026F000214628465B6E9847E369D90715D50AAF8E
:102700002368214606AE3846DB6B9847D5F800C0F3
:1027100097E80F0086E80F00099B28460093DCF835
:10272000607096E80E00B847E369AA6C72B340F295
:1027300001429A4335D09A050BD40FB0F0BD23481F
:1027400022F0E0FE0FB0BDE8F04020F097BCAC6393
:10275000CCE743F4006304AE29461D4AE3613046EA
:10276000EB6943F48043EB6122F0D2F82A4696E805
:1027700003000FB0BDE8F04022F010B9154822F078
:10278000C1FE0FB0BDE8F04020F078BC03F01402A9
:10279000142ACCD12B68214628469B6C9847E369C4
:1027A000C5E743F4006302AE094A2946E3613046B7
:1027B000EB6943F48043EB6122F0AAF82A4696E8DD
:1027C000030022F0EBF8E369B5E700BFDC030090FB
:1027D00095370008D4030090002A07DBD0F8FC33BB
:1027E00023B19B69834208BF4FF0FF32FFF76CBFF4
:1027F00010B584B000226C46114620462DF080FEB4
:1028000094E80F0021F0B6F8B0FA80F0400904B067
:1028100010BD00BF10B5044680F80E1481B9D0F881
:10282000FC0318B1036840221B6C9847E16DF1B1BD
:1028300008694022002103681B6C9847012010BDE5
:10284000C26D7AB110694021002203681B6C984761
:10285000D4F8FC0320B10368002240211B6C984788
:10286000012010BD036840211B6C9847F0E72368E6
:10287000204640221B6C9847012010BD00B583B054
:1028800003460548009105490CF07EF903B05DF858
:1028900004EB0CF08DB900BF1C5A0590005A05904E
:1028A00084B02DE9F04F04469DB0406D27AE00285E
:1028B00086E80E0000F39D80636C002B3AD0A5697A
:1028C00085B1CD4B1B78002B40F09C802A9B204685
:1028D000009396E80E00FFF7C7FB1DB0BDE8F04F70
:1028E00004B070472C330FCB21F044F838B129469F
:1028F000204622F08FFA2946606C22F08BFABF4BFB
:10290000656C1B78002B40F089800DF1040C05F1FB
:102910002C070DF1300896E80F008CE80F00AB6B28
:102920004046009397E80E0021F08CF898E80F00DD
:1029300087E80F00B04B1B78002B63D1A369002BF5
:10294000C4D104F128082A9B01AD0DF1400998E893
:10295000030085E803004846009396E80E0021F046
:102960002BF9139F98E80F0085E80F00304699E88F
:102970000E00009721F028F896E80F0020F0FAFFEB
:102980000028AAD1D4F8F873002FBA4640F3B081DA
:1029900080460DF1500983464FEA081A04EB0A07F6
:1029A00096E80F0007F56E7785E80F00FB6848464C
:1029B000009397E80E0021F007F899E80F0020F047
:1029C000D9FF002839D0D4F8F87308F10108474539
:1029D000BA4652DDB8F1030FCCBF4FF0010B4FF0F8
:1029E000000BD9DD40F6593204214046FFF746FF7F
:1029F000D2E7834822F086FD1DB0BDE8F04F04B059
:102A000020F03CBB626B04F12803304600920ECBF1
:102A100021F01CF9A369002B93D057E7626B0CAF30
:102A200004F128032C35384600920ECB21F00EF924
:102A300097E80F0085E80F007CE7BBF1000F40F03E
:102A4000768196E80F0085E80F000CADFB682846FC
:102A5000009397E80E0020F0F5FF95E80F0087E857
:102A60000F00A24408F1EA080AF56E7A9AE80F000E
:102A700021F0CCF844F828002FE7022F40F33881EA
:102A8000042F00F0C88104EB0A1A032F96E80F0008
:102A90000AF56E7A8AE80F0000F2B68104F56A73CF
:102AA0006FF000424FF0000BEA3707930DF160081A
:102AB0000A9296E80F0021F0A9F8D4F8F833DDF86F
:102AC0001CA044F827000795CDE908BB9B45D946D3
:102AD00000F3B5800BF1010B9B455E4638DC04EB3F
:102AE0000917CDF82CB0DDF828B007F56E77B9F1ED
:102AF000030F30DC032E00F2858004EB0613079DE4
:102B000003F56E730FCB85E80F00FB68404600931A
:102B100097E80E0020F096FF98E80F0021F076F875
:102B2000DAF80030050204EB8602D2F8A823134439
:102B300095FBF3F55D4502DAAB46CDE90869013650
:102B4000D4F8F833B342D2DACDF828B0DDF82CB09F
:102B50000AF1040ABAE740F6773204214846FFF743
:102B60008DFE032E1CD804EB0613079D03F56E7330
:102B70000FCB85E80F00FB684046009397E80E00F6
:102B800020F060FF98E80F0021F040F840F679321D
:102B9000050204214846FFF771FEDAF80030C2E76B
:102BA00040F6773204213046FFF768FE079D04EBBC
:102BB000061303F56E730FCB85E80F00FB684046E4
:102BC000009397E80E0020F03DFF98E80F0021F0F9
:102BD0001DF840F67932050204214846FFF74EFE03
:102BE000DAF8003040F67932042130460A93FFF7D4
:102BF00045FE0A9B97E700BF340F00208C0E002093
:102C0000E403009040F6773204213046FFF736FEA9
:102C1000079D04EB061303F56E730FCB85E80F00D9
:102C2000FB684046009397E80E0020F00BFF98E801
:102C30000F0020F0EBFFDAF800300502D2E7099B25
:102C4000079D032B00F2A680089B032B05D940F6B5
:102C5000843204210898FFF711FE089B0DF130091A
:102C60001F01099B4FEA0318E31903F56E7304EB88
:102C700008060FCB06F56E7685E80F00F368484628
:102C8000009396E80E0020F0DDFE99E80F0086E83C
:102C90000F0004EB080303F56E730FCB20F0B6FFB3
:102CA000099BD4F8F853EA3344F82300089B9D426B
:102CB0003FF413AE032D00F2D880089B032B00F2E3
:102CC000B38004EB0513D4F8F863E51903F56E73CC
:102CD000032E05F56E750FCB85E80F0000F2CC8052
:102CE000EA36089B54F82620EA3344F82320F4E51A
:102CF000002F46DB04EB0A1A032F96E80F000AF5B3
:102D00006E7A8AE80F0005D940F66632042138460B
:102D1000FFF7B4FDEA3796E80F0020F077FFD4F80C
:102D2000F83344F827000133C4F8F833D5E54046BA
:102D300040F65D3204210DF13009FFF79FFD40465A
:102D400040F65C320421FFF799FD96E80F0085E814
:102D50000F00FB684846009397E80E0020F072FED3
:102D600099E80F0087E80F00404640F65F320421E3
:102D7000FFF784FD40F65E3204214046FFF77EFDFA
:102D80006FE6384640F665320421FFF777FDD4F848
:102D9000F873AFE7184640F684320421FFF76EFD62
:102DA000089B032B6FD8089B40F68332099E0421B1
:102DB0001F010DF1300930464FEA0618FFF75EFD9E
:102DC000E319099604EB080603F56E7306F56E76B3
:102DD0000FCB85E80F00F3684846009396E80E0095
:102DE00020F030FE099D99E80F0086E80F00284684
:102DF00040F686320421FFF741FD40F6853204217A
:102E00002846FFF73BFD44E74FF43762042138467C
:102E1000FFF734FD42E63946384640F66F32FFF799
:102E20002DFDD4F8F8732EE6184640F68A320421B8
:102E30002744FFF723FDD4F8F86304EB051307F5E7
:102E40006E75032E03F56E730FCB85E80F0005D961
:102E500040F68D3204213046FFF710FD40F68C32EB
:102E600004210898FFF70AFD3AE740F68B32042167
:102E70002846FFF703FD20E740F68D320421304657
:102E8000FFF7FCFC2CE740F6843204210898FFF79A
:102E9000F5FC88E782B08DE80C0002B0704700BFF7
:102EA00082B08DE80C0002B0704700BF84B070B5EE
:102EB00082B0DDE90A5607ACCDE90056056884E822
:102EC0000E002D6A94E80E00A84702B0BDE87040DD
:102ED00004B07047436A8B4220D0036A4162EBB171
:102EE000C2695105F0B504468FB018D51E6B04AD0C
:102EF000A369F1692846DA6941F4805142F48042BD
:102F0000F1611946DA611E4A21F002FD224695E878
:102F100003000FB0BDE8F04021F040BD7047836969
:102F200002AD174A06AEDF691946284647F4A047A6
:102F3000DF6121F0EDFC224695E8030021F02EFD33
:102F4000A76930460AAD7A6B07F1280300920ECBD1
:102F500020F07CFED7F800C096E80F0085E80F004F
:102F60000D9B38460093DCF8606095E80E00B04792
:102F7000236A13B1E2695205B8D40FB0F0BD00BFA7
:102F80009537000803685B6A184700BF82B08C461B
:102F9000F0B587B004469DF84C1010AF129802AE01
:102FA00005910CA904900EAD81E80C0097E8030090
:102FB0000CAB86E8030095E8030026680CCB8DE88F
:102FC00003006146B56A2046A84707B0BDE8F04057
:102FD00002B070470368DB6A184700BF84B0F0B5E1
:102FE00087B00568119E0DAC0196DDE91276CDE93A
:102FF0000276149F109E049700962D6B84E80E00B5
:1030000094E80E00A84707B0BDE8F04004B0704750
:1030100082B070B584B00D4604460AA90C982E689B
:103020000DF1200C029003C98CE80C008DE8030020
:1030300029462046756BDCE90023A847204604B0EA
:10304000BDE8704002B0704730B4056882B0AD6B27
:103050006C46AC4684E8060094E8060002B030BC3A
:10306000604700BF0B6810B50446DB6B98472046ED
:1030700010BD00BF03681B6C184700BF10B4046884
:1030800083B0646C6B4683E8060093E80600234631
:1030900003B05DF8044B184710B4046883B0A46C07
:1030A0006B4683E8060093E80600234603B05DF80C
:1030B000044B184710B4046883B0E46C6B4683E893
:1030C000060093E80600234603B05DF8044B18475A
:1030D00010B4046883B0246D6B4683E8060093E85F
:1030E0000600234603B05DF8044B1847036C826A60
:1030F000816B934230B412D08B4202D0002030BC9E
:103100007047036B9A42F9D1426CC36A9A42F5D177
:10311000C36B406B181AB0FA80F04009EFE7026BFE
:103120008A42EBD1426CC46BA24202D08B42E5D101
:10313000EBE7456BC46AA542F8D10120DFE700BF89
:1031400084B070B582B0056807AC0A9E00966D6CBD
:1031500084E80E0094E80E00A84702B0BDE8704075
:1031600004B0704782B02DE9F04FB3B0846B0020FB
:103170003CAD0DF1380A0E90CAF8040085E80C0049
:103180009DF80C31CAE902000793002C77D0012387
:1031900008910DF1580901AD09934AE0DA0746D5C7
:1031A0005B0571D40DF1880B22680DF580782146FE
:1031B0005846D26B904712AE98E8030085E80300AA
:1031C000259F26A89BE80E00009720F0F5FC3CAB5D
:1031D0000FCB85E80F0026AB299F30460ECB00971A
:1031E00020F0F2FB96E80F0020F0C4FBF8B92EAFF8
:1031F000D4F800E00DF1300C96E80F0087E80F00DE
:10320000079B02AE98E803000593429B04938CE869
:10321000030097E80C0086E8030032A911E90300D7
:103220008DE8030008992046DEF82860B04724693D
:103230002CB3E3699905B1D53949204620F088F8C7
:1032400040AA064600F1280392E8030085E803003F
:10325000726B484600920ECB20F0AEFC3F9F99E87F
:103260000F0085E80F003CAB009750460ECB20F0D6
:10327000ABFBF269E36902F0010209928EE733B019
:10328000BDE8F04F02B07047099B002BCFD00DF185
:10329000680B22680DF5807821465846D26B90471E
:1032A00012AE98E8030085E803001D9F1EA89BE866
:1032B0000E00009720F080FC9AE80F0085E80F00D0
:1032C0001EAB219F30460ECB009720F07DFB96E889
:1032D0000F0020F04FFB0028A9D12AAF0DF1280CD8
:1032E0000DF1080E96E80F0087E80F00079B2CAE43
:1032F00098E80300D4F800800593429B04938CE87F
:10330000030097E80C008EE8030096E803008DE8C0
:10331000030008992046D8F82860B04787E700BF27
:103320004401009082B02DE9F041044694B00F466C
:103330002098E16C9DF8846000FB01111AA80D1221
:1033400080E80C0016B1E669C6F34006636C002BFA
:103350003BD0FF22EBB210AD114610461FF030FB00
:103360000E90606C05F022FA1EA9D4F834C001AAB0
:1033700004F12803D4F8448003AC03C982E80300B5
:10338000CDF800C028460ECB20F016FC20490E9B3D
:1033900007AA0D9600260C93099303C9CDE90A33B9
:1033A00082E8030095E80F0084E80F001D9B384673
:1033B000CDF8048000931AAB02960ECB04F0C8FF40
:1033C00014B0BDE8F04102B07047E16A0DF1380871
:1033D0001EAAA36A4046009106CA20F029FA0DF100
:1033E000080E0DF1700C1AABCDE9045698E80300F5
:1033F0000CCB8EE803009CE803008DE803003946FF
:103400002046FFF7AFFE14B0BDE8F04102B07047B0
:103410000003009082B02DE9F04F2D4C95B00F467F
:10342000064694F800801EA99DF894A022AC81E87D
:103430000C00B8F1000F31D101AD219B0DF1300B23
:103440000DF1400994E80300C5E9000100931EABAB
:1034500058460ECB20F0B0FB06F128030B9593E8FD
:103460000300C5E900010F9D48469BE80E0000954A
:1034700020F0A2FB174B0B9DD3F8EC33CDE90838B5
:10348000CDE90633059399E80F0085E80F00219BED
:10349000384600931EAB0ECB04F0A0FF249902AA7D
:1034A000CDF814A020AB049194E8030082E8030057
:1034B00093E803001EAB0CCB8DE803003946304681
:1034C000FFF730FF15B0BDE8F04F02B0704700BF06
:1034D000340F0020000000902DE9F04FAFB0426B98
:1034E00000F1280306460DF1480AC76900920DF164
:1034F0005809504607F480570ECB20F0A7FB002256
:10350000F46BC9F804201692C9E90222CDE9082219
:10351000A4B19F4D09E023F40063E36113F4007F3D
:103520004FF0010249D1646944B1E3691905F2D44D
:10353000002AF3D164690022002CF6D1B56BF3693F
:10354000002F40F0F780049743F40053F361D5B1A6
:103550004FF0000801AB4446CDF81C80CDE905834F
:10356000D5E9077378054DD523B11B6B43454BD087
:1035700000232B62002C2DD1BB0500F19B802D690F
:10358000002DEDD1F3690CAC159A23F400532046BD
:10359000F36100929AE80E0020F048FB326810AB0D
:1035A00094E80300946D83E80300304693E8060036
:1035B00023462FB0BDE8F04F1847294620461FF09C
:1035C000C7FE436C0022002BB4D0E36943F4805360
:1035D000E361A8E76B6A142B02D1059B002BCBD0CB
:1035E0002F680DF1780CCDF8048099E80F008CE875
:1035F0000F00219B284600933F6A9CE80E00B847C5
:10360000D5E90773002BB7D0049BD3B117F4806EB4
:1036100040F0AC8022AF0DF1900CD5F800B09AE8E4
:103620000F0087E80F00CDF808E09CE8030097E85A
:103630000C008DE803002946DBF834700EA8B8476B
:10364000EF69002C98D0790596D50DF1200B199BC8
:10365000069A26AF9BE8030082E8030000931AA8AD
:1036600099E80E0020F0A8FA1AAB0DF1A00CD5F8DD
:1036700000E00FCB87E80F00059B02939CE8030056
:1036800097E80C008DE803002946DEF834700AA89C
:10369000B847EF69FA077FF56FAF059B00220A99DB
:1036A000013BCDE910220B9A032B55D8DFE803F03C
:1036B0006B506762364928461FF04AFE17F4805463
:1036C00080463FF45CAFEA6900F1380300F1280757
:1036D000002422F4805293E80300069BEA6183E809
:1036E0000300D8F834304846009397E80E0020F0E5
:1036F00063FAD8F844300593D8F84030079399E836
:103700000F00CDE9084420F035F900287FF437AFE9
:103710000DF1A80CD6F800E0012497E80F008CE822
:103720000F002D9B30460093DEF860709CE80E0081
:10373000B84724E723F48053F3619AE80F0020F0A0
:1037400019F9B0FA80F31A46F36952090492FBE6BC
:103750005342079A9B1A1193119A5846109B009254
:103760009BE8060020F064F8EF6905E7002C7FF481
:103770006CAF01E74B42079A9B1A1093ECE7079B4B
:1037800019441091E8E7079B1A441192E4E700BF3F
:103790004401009070B5C569044669040BD42946FC
:1037A0000A0410D5236821F400412046E161DB6D55
:1037B000BDE87040184725F48043C361FFF78CFED5
:1037C000E1690A04EED4EB04ECD470BD03689B6C91
:1037D000184700BFC069C0F30010704703681B6C36
:1037E00009B9102218470022102118470368DB6C22
:1037F000184700BF03681B6C09B901221847002253
:103800000121184770B584B0064602AD85E80C006A
:1038100059B10C46E36A28460093A36A95E806006E
:103820001FF0F4FFA469002CF4D195E8030086E8AA
:103830000300304604B070BD03681B6D184700BF1D
:103840002DE9F04F8BB0C46B8046894602AE149FC1
:1038500086E80C00C4B1DFF8A0A006AD7FBB2368EA
:1038600021462846DB6B984796E803008DE8030065
:1038700095E80F0020F064F878B90123002064690E
:103880000CB1002BE9D1B8B9D8F800304946404610
:10389000DB6A0BB0BDE8F04F1847514620461FF0D9
:1038A00057FD4946054688B923682046DB6A984794
:1038B000B0FA80F35B09E2E70BB0BDE8F08F394660
:1038C000E06920F0B9FE0028C9D1D6E7C36A0DF13E
:1038D000100B00935846AB6A96E806001FF096FF5F
:1038E0000097284649469BE80C00FFF7A9FFB0FA6D
:1038F00080F35B09C3E700BFF003009010B483B00E
:103900006C4684E80C0094E80C0003B05DF8044BAE
:10391000FFF796BF03685B6D184700BF10B40468DB
:1039200083B0A46D6B4683E8060093E80600234647
:1039300003B05DF8044B18470368DB6D184700BF00
:1039400030B5C36983B0044601466D4643F4004375
:10395000064A2846E36120F0DBFF224695E8030093
:1039600003B0BDE8304021F019B800BF953700081A
:1039700010B504461FF08AFB142006491F22FF23BE
:10398000606220462160E261E364BDE81040FFF719
:10399000D7BF00BFF003009084B070B582B0056857
:1039A00007AC0A9E00962D6E84E80E0094E80E0087
:1039B000A84702B0BDE8704004B07047FFF7C0BF31
:1039C00070B529B38B69834222D11646D1E90445EB
:1039D000314604B9E5B19CB1B6B1E06920F02CFEE6
:1039E000314688B995B1E86920F026FE58B92469B6
:1039F0006D69EDE7E86920F01FFE20B96D693DB102
:103A00003146002EF6D12C46204670BD2469DFE7F2
:103A10000024204670BD00BF2DE9F043C7698FB078
:103A200086690446BD0527EA0205B14648BF21F470
:103A300080610D436F40C561002E53D017F0140F05
:103A400006D005F01403B26C142B40D090426AD01B
:103A500040F203431F4261D00DF11808236821464C
:103A60000AAE4046DB6B9847D9F800C098E80F00D3
:103A700086E80F000D9B48460093DCF8608096E8CE
:103A80000E00C047236AA6691BB1680501D5F90776
:103A90002FD40EB17A0502D40FB0BDE8F083E369EC
:103AA00004AD0022314643F4006328462262E361FC
:103AB000F369224A43F48043F36120F029FF224650
:103AC00095E803000FB0BDE8F04320F067BF002A7F
:103AD000BED13368304621469B6C9847A669B146F3
:103AE000002EB5D1236A002BD6D06B05D4D5F907AB
:103AF000CFD5E36902AD3146104A43F4006328464E
:103B0000E361F36943F48043F36120F001FF22464F
:103B100095E8030020F042FFA669BAE7236A4E4603
:103B2000002BB2D1B6E7214614223046FFF748FFFA
:103B30003368014630469B6C9847CFE795370008BD
:103B400070B5044682B0C669FFF766FFA06CE569F0
:103B500018B185EA06035B0613D4B5421BD0E369AE
:103B60006D4621460E4A43F400432846E36120F0A7
:103B7000CFFE224695E8030002B0BDE8704020F079
:103B80000DBF036815F040011B6C06D000224021D8
:103B90009847B542E3D102B070BD40229847DCE7B8
:103BA00095370008F0B5044693B00E461546FFF76A
:103BB000C7FFA3690BB113B0F0BD2E43F2071AD5AE
:103BC00002AF626B04F128030AAD384600920ECBB7
:103BD00020F03CF8D4F800C097E80F0085E80F000B
:103BE0000D9B20460093DCF8607095E80E00B84706
:103BF000A369002BDFD1B307DDD5626B06AE04F1FC
:103C000028030EAD304600920ECB20F01FF8276837
:103C100096E80F0085E80F00119B204600933C6E4C
:103C200095E80E00A04713B0F0BD00BF03685B6EBF
:103C3000184700BF03689B6E184700BF10B50446C5
:103C4000002105481FF040FA236E002B16BF012209
:103C500000220361027510BD7403009010B5044684
:103C6000002105481FF030FA236E002B16BF0122F9
:103C700000220361027510BD5003009010B5044688
:103C8000002105481FF020FA236E002B16BF0122E9
:103C900000220361027510BD2C03009010B504468C
:103CA0000AF09EFFD4F868330BB1834207D3002398
:103CB0000022C4F86803C4F86C23184610BDD4F879
:103CC0006C134FF47A72C31AC4F8680302FB01F252
:103CD00092FBF3F300221846C4F86C2310BD00BF1A
:103CE000FFF7DCBFD0F8F833002B07DDD0F86C33DA
:103CF00000220133C0F8F823C0F86C33704700BFCE
:103D0000D0F8F833002B07DDD0F86C3300220133F4
:103D1000C0F8F823C0F86C33704700BF82B02DE9BB
:103D2000F04F1446A5B000258946089210AE309A8F
:103D3000203409900AA8009275602F93109594E89A
:103D40000600C6E902551FF073FD0B9A0A9B14A8E2
:103D500000922FAA06CA1FF0BFFDD9F85430D9F837
:103D6000F8A30133AA45C9F8543016DD01AB09F5B3
:103D70006A7B07935BF8043B09EB05140DF17008AF
:103D8000002B04F56E741CDC0AF1010A0135AA450A
:103D900001DD032DEEDDD9F85430013BC9F8543074
:103DA00096E80F001FF0E6FD002857D0099C96E822
:103DB0000F0084E80F00099825B0BDE8F04F02B06D
:103DC00070472FAB20AF93E80300079B83E8030005
:103DD000E36818A8009394E80E001FF0D7FE2FAAFE
:103DE0000CA806CA1FF036FD18AA4FF0010E0DF1FF
:103DF000380C0FCA87E80F000CAA02AB92E8030048
:103E0000FF228CE80300CDE9042E24AAD9F800C0D3
:103E100083E8030012E9030097E80C008DE8030033
:103E200008994846DCF82870B847179F94E80F00B7
:103E3000079C84E80F0014AB009740460ECB1FF0A0
:103E4000C3FD139C079F98E80F0087E80F000094BC
:103E5000304696E80E001FF0F5FD97E72FA9139A5C
:103E600001AB03C983E803000092099896E80E00AD
:103E70001FF08CFE9FE700BF82B030B583B00446D0
:103E8000089D07930095FFF749FF204603B0BDE862
:103E9000304002B0704700BF002A70B406461EDBF7
:103EA000D1F8F80300281ADD01F56A74002306E052
:103EB000013001320133984211DD032B0FDC54F83D
:103EC000045B002DF4D09A42F4D101EB021202F50A
:103ED0006E720FCA86E80F00304670BC7047002330
:103EE0003046C6E90033C6E9023370BC704700BFF4
:103EF00010B50446FFF7D0FF204610BD2DE9F04F66
:103F0000D0F8F813A9B0BC4B0122002910ADBB4C6E
:103F10008346D4BF0021012128461F7824782CF045
:103F2000EFFA95E80F001FF025FD70B914AEDBF82D
:103F300000C095E80F0086E80F00179B58460093D5
:103F4000DCF8605096E80E00A8473C43DBF8F853D5
:103F50002CD1002D2ADD5E46D8461CAA08F56E73CA
:103F600008F1100802EB041701340FCBAC4287E8CC
:103F70000F0000F08E81032C40F6075221462046A8
:103F8000EBD1FEF77BFCE8E7270100261CAB0BEB2F
:103F900006053344103605F55C75BE420FCB85E847
:103FA0000F00F3D1DBF8F853CBF8A0436C1E002CC4
:103FB00067DD00230BF56A7907930893D9F8003081
:103FC000079A002B02F101083DDDA8453BDA1301F9
:103FD00009F104064446CDF828800B935B4403F5B1
:103FE0006E7A032C46D83368002B24DD089B002B07
:103FF00067D1032C00F2248127010DF104080BEB9B
:10400000070303F56E730FCB88E80F00DAF80C3066
:104010001CA800939AE80E001FF014FD1CAB0FCBF8
:104020001FF0F4FDD9F8003032680546C31A9B1A18
:10403000002BC0F2E5800134DBF8F8530436A542CA
:10404000CFDCDDF828806C1E44451ADDB8F1030F83
:10405000CCBF01230023089307DD40F6145204214E
:104060004046FEF70BFCDBF8F85309F10409CDF8E4
:104070001C80A3E740F6165204212046FEF7FEFB03
:10408000B1E7002C12DB04F1EA050BEB8505032CEC
:1040900010DC55F80439013C23B9DBF8F833013B57
:1040A000CBF8F833631CF2D1DBF8F853284629B07B
:1040B000BDE8F08F40F6265204212046FEF7DEFBD5
:1040C000E7E740F6195204210798FEF7D7FB032CC7
:1040D00024D827010DF104080BEB070303F56E73D9
:1040E0000FCB88E80F00DAF80C301CA800939AE890
:1040F0000E001FF0A7FC1CAB0FCB1FF087FD40F696
:104100001B52054604210798FEF7B8FBD9F800308A
:104110003268EB1A9B1A002B8DDA35E0270140F646
:10412000195204212046FEF7A9FB0BEB07030DF102
:10413000040803F56E730FCB88E80F00DAF80C3033
:104140001CA800939AE80E001FF07CFC1CAB0FCB60
:104150001FF05CFD40F61B52054604210798FEF750
:104160008DFBD9F80030EB1A099340F61C5204215C
:104170002046FEF783FB3368099AD31A002BBFF65B
:104180005AAF089B002B3BD040F61F5204210798E2
:10419000FEF774FB032C00F2A38040F61E520421AC
:1041A00007985F44FEF76AFB0B9B0BEB030207F5D6
:1041B0006E7302F56E770FCB88E80F000CAAFB68D0
:1041C0001046009397E80E001FF03CFC0CAB0FCBA1
:1041D00087E80F004FF4526204210798FEF74EFB68
:1041E000032CC9F8005028D940F62152042120465A
:1041F000FEF744FB21E000BF340F002088000020C0
:10420000032C3FD80BEB07030B9A03F56E730BEBF4
:1042100002070FCB07F56E7788E80F00FB680CA844
:10422000009397E80E001FF00DFC0CAB032C0FCB96
:1042300087E80F00C9F80050D6D800233360FAE6AB
:10424000270140F6195204212046FEF717FB0BEB1D
:1042500007030DF1040803F56E730FCB88E80F0018
:10426000DAF80C301CA800939AE80E001FF0EAFB65
:104270001CAB0FCB1FF0CAFCD9F800300546C31A9F
:10428000099372E740F61F5204212046FEF7F6FA22
:10429000B8E7DBF8A033002B7FF776AE002718AD28
:1042A00006F55C73DBF800C0013710360FCB85E8EC
:1042B0000F001B9B58460093DCF8608095E80E00C9
:1042C000C047DBF8A033BB427FF75EAE022F40F65B
:1042D0000A524FF003013846E2DDFEF7CFFADFE77E
:1042E00040F61F5204212046FEF7C8FA55E700BFEA
:1042F000F0B5044687B008460D461746FFF7FEFDA9
:1043000030B9C4E90000C4E90200204607B0F0BD9E
:10431000114B3A4602AE2946D3F804733046D3F81F
:1043200000330097FFF7FAFCD5F8F833002B06DCD2
:1043300096E80F0084E80F00204607B0F0BDD5F8DE
:104340006C3300220133C5F8F823C5F86C3396E8C6
:104350000F0084E80F00EFE700000090F0B505467D
:10436000D1F8A40385B00C4650B104F01FFA2846DA
:10437000D4F8A4232146FFF7BBFF284605B0F0BDC3
:1043800001460B481EF0A0FE02AE626B04F128034A
:104390000746C4F8A403304600920ECB1FF046FC3B
:1043A000384696E8060004F0F3F9D4F8A403DCE7F5
:1043B0006807009010B50446FFF7D0FF204610BDF7
:1043C00010B50446FFF794FF204610BDFFF796BDD9
:1043D000D0F8F833002B01DD01207047FEF708BA52
:1043E000D0F8F833002B01DD01207047FEF700BA4A
:1043F000F0B591B01B4D044602AB04AE83E8060055
:10440000039A30460B46009295E806001FF064FAC6
:1044100008AD276896E80F0085E80F000B9B204643
:1044200000937E6C95E80E00B04794F80E34A3B963
:10443000E36943F02003E36104F128030CAD26682F
:104440000FCB85E80F000F9B20460093366E95E852
:104450000E00B047204611B0F0BDE36943F06003A1
:10446000E361E9E70003009082B06B4683E8060051
:1044700093E8060002B0FFF7BBBF00BF90F80E3410
:104480008B4201D0FEF7C6B90020704790F80E3479
:104490008B4201D0FEF7BEB900207047016670471D
:1044A000016670472DE9F04F0F469DB004460AA9FA
:1044B000092F81E80C0000F2C48007F158060A9B1E
:1044C0000B9A0CADF6000393029200EB8709A31937
:1044D00006F1040A28469A6804EB0A0B5B6800920E
:1044E00006C91FF093F9039B029A44F80A30CBF8EF
:1044F0000420D9F84C32002B00F0A380A64B95E89D
:1045000003000CCB1FF066F9002800F09A80D9F860
:104510004C82D8F81850AC42DDE9023216D0ADB169
:104520000DF1380801E0AC420ED0E96A4046CDE911
:104530000E230091AB6A98E806001FF067F9AD6999
:10454000DDE90E23002DEED1D9F84C82002D7DD06F
:10455000A6F1C4050021914804EB050C62510592B7
:10456000CCF80430C4F8647304931EF0ADFD216EE2
:104570000546002914BF01200020DDE9043228751A
:1045800000D0296107F130005436D9F8901004EBBF
:10459000C70C04EB060E04EBC0000CF51D7C0DF1FE
:1045A000600AA6590DF1200BCDE91623DEF8042090
:1045B0004B1C05960492D9F858210793069203C81C
:1045C000DDE90C968AE803009CE80300AF641CAFA9
:1045D00007E9030016AF1B9A58461A9B009297E80A
:1045E00006001FF025F905F140029BE80300DDE914
:1045F0001A3782E803009AE80600584600971FF031
:1046000017F9D8F8002005F13803D26A9BE80300B7
:1046100083E80300079B40460499AB62059BE96170
:104620002946AB61069BEB62039B2B62029BC5E9AB
:104630000C966B6290470023012023661DB0BDE8F5
:10464000F08F002020661DB0BDE8F08F44453FF498
:104650007FAFC4F864732946C9F84C5250481EF025
:1046600033FD236E0546002B14BF01220022027584
:1046700000D02B6154F80A0004EBC701543607F14F
:10468000300E0B46059001F5FE71DBF804000DF1CC
:10469000400CA21904EBCE0E0490D2F804B003F53E
:1046A0001D73D9F89020A65902F1010AD9F85821B2
:1046B0000696079203C98CE803009EE803000DF1FB
:1046C000480E8EE8030093E803000DF1500E4FF002
:1046D00000032F6485F844308EE8030008A9159A7A
:1046E000149B084600929CE806001FF0A1F808A958
:1046F00005F138020DF1200C159E149B03C982E8C8
:10470000030012A9604606C900961FF091F808A997
:1047100005F13003059A03C983E803004FF0000355
:104720002946404685F84530D8F80030C5F828A01D
:10473000DB6AC5E907B2069AAA61079AEA62049A97
:104740006A629847D4F8F831434520D000211548D3
:104750001EF0BAFC226E0346002A14BF012100217C
:10476000017500D00261D9F890200020029E194600
:1047700098850132256803989F625A621822D86191
:1047800020461E62C3F818806B6D984753E70023DC
:10479000C4F8F831DAE700BF00030090740300901A
:1047A000500300902C03009082B06B4683E8060013
:1047B000D0F864130CCB02B0FFF774BE30B484B0F1
:1047C00005466C4602AB84E8060094E80300D5F881
:1047D000641383E8050028460CCB04B030BCFFF717
:1047E00061BE00BF10B483B06C4684E80C0094E84E
:1047F0000C0003B05DF8044BFFF754BE0AF0F0B9AB
:1048000010B504460AF0ECF9206110BDA1F13003A7
:1048100081838277092B10B44FF00004846102D8A1
:10482000A1F126038361A1F14103192B02D801F103
:1048300028038361A1F16103192B04D80831816138
:104840005DF8044B7047202904D183235DF8044BA5
:10485000836170478369002BF2D12A391329EFD87D
:1048600001A353F821F000BFE9480008E34800081D
:10487000DD480008D7480008D1480008CB480008A8
:1048800041480008414800084148000841480008E4
:1048900041480008414800084148000841480008D4
:1048A0004148000841480008C5480008BF480008C2
:1048B00041480008B948000888238361C0E78C2379
:1048C0008361BDE78B238361BAE787238361B7E701
:1048D00089238361B4E785238361B1E78A238361F8
:1048E000AEE784238361ABE786238361A8E700BF3B
:1048F000FFF78CBF10B4A1F10A04A1F1690382771C
:10490000092C81618CBF002201F12602192B8283C0
:1049100004D8413383835DF8044B7047832904D165
:1049200020235DF8044B83837047838B002BF2D1E7
:1049300084390829EFD8DFE801F01D1A1714110E89
:104940000B0805003B238383E5E73A238383E2E7F3
:104950002C238383DFE72E238383DCE73D238383BC
:10496000D9E72F238383D6E72A238383D3E72D2315
:104970008383D0E72B238383CDE700BFFFF7BABF44
:10498000A1F18D03072B3DD8DFE803F00C323A1577
:1049900021262B04838B002B30D18069003018BF77
:1049A00001207047808B20F02000413819288CBFEF
:1049B000002001207047808B20F02003413B052B15
:1049C0001CD9303809288CBF002001207047808B0B
:1049D000003018BF01207047838B002BDDD00020F2
:1049E00070478069043803288CBF0020012070477D
:1049F000808B20F02003413B192BE2D80120704727
:104A0000808BDEE78069401AB0FA80F04009704779
:104A1000F0B404AD0446002055F8047B04F11C06F4
:104A2000A16284F82C00626295E8030086E8030026
:104A30002046A76184F82D30F0BC704770B4002682
:104A4000049D80F82D30039B80F82C608361C0E9C1
:104A50000921059AC0E9075270BC7047F0B404AD53
:104A60000446012055F8047B04F11C06A16284F879
:104A70002C00626295E8030086E803002046A761E7
:104A800084F82D30F0BC704770B40126049D80F886
:104A90002D30039B80F82C608361C0E90921059AC1
:104AA000C0E9075270BC7047F0B587B004460127D3
:104AB00001640DF1100C02AD119E84F8447028467B
:104AC00000968CE80C00109B9CE80600DDE90E7651
:104AD0001EF0AEFE04F13802DDE91031009195E8D8
:104AE000030082E803000CAA284606CA1EF0A0FEB6
:104AF00012AB04F1300E04F1200C14AA95E8030067
:104B00008EE8030093E80300E76204F11803A6624D
:104B10008CE8030092E8030083E80300204607B016
:104B2000F0BD00BF2DE9F04F04468DB00120216497
:104B300016A90DF1180C0DF1680E84F8440008AEAA
:104B40000DF1100802AD03C98CE80C0088E80C00D8
:104B500086E803000CAB9EE80300DDE91CBA03E91C
:104B600003000B9A28460A9B00929CE80600DDE9A8
:104B70001E971EF05DFE04F13802DDE90A31009156
:104B800095E8030082E8030096E8060028461EF038
:104B90004FFE04F1300395E8030083E80300189BFF
:104BA0002046E362199BC4E908BAA362C4E90697E8
:104BB0000DB0BDE8F08F00BF2DE9F04186B004468E
:104BC000002701640DF1100C02AD119E84F84470B1
:104BD000284600969DF848808CE80C00109B9CE8C5
:104BE0000600DDE90E761EF023FE04F13802DDE951
:104BF0001031009195E8030082E803000CAA2846D2
:104C000006CA1EF015FE13AB04F1300E04F1200CA1
:104C100015AA95E803008EE8030093E80300E76215
:104C200004F11803A66284F845808CE8030092E83A
:104C3000030083E80300204606B0BDE8F08100BF12
:104C40002DE9F04F04468DB00020216416A90DF126
:104C5000180C0DF1100E84F8440008AE1AAF02AD26
:104C60009DF870B003C98CE80C008EE80C0086E853
:104C700003000CAB97E80300DDE91DA903E903007D
:104C80000B9A28460A9B00929CE80600DDE91F87E4
:104C90001EF0CEFD04F13802DDE90A31009195E8FD
:104CA000030082E8030096E8060028461EF0C0FDD7
:104CB00004F1300395E8030083E80300189B2046C5
:104CC00084F845B0E362199BC4E908A9A362C4E96A
:104CD00006870DB0BDE8F08F2DE9F04186B004469F
:104CE0004FF0010C016402AD04AE0E9F84F844C085
:104CF0002846009700279DF83C8086E80C000D9B15
:104D000096E806001EF094FD04F13802DDE90D314D
:104D1000009195E8030082E8030096E80600284623
:104D200004F120061EF084FD04F1300C10AB04F1F8
:104D3000180295E803000C9D8CE8030093E803003B
:104D4000A56284F84580E76286E8030082E80300F4
:104D5000204606B0BDE8F081F0B482B007468C462C
:104D60006C469DF824606146384684E80C0009963C
:104D700094E80C0002B0F0BCFFF7AEBFF0B587B00E
:104D8000044681640DF1100C02AD139E2846009676
:104D90008CE80C00129B9CE80600DDE910761EF002
:104DA00047FD04F14002DDE91231009195E803006E
:104DB00082E803000CAA284606CA1EF039FD0EAA96
:104DC00004F1380E14AB04F1300C95E8030004F143
:104DD00020058EE8030092E8030016AA8CE8030081
:104DE00093E80300E76204F11803A66285E8030074
:104DF00092E8030083E80300204607B0F0BD00BF3F
:104E00002DE9F04F8FB00446816418A80DF1200CF5
:104E10000DF1180E0AAE1EAF04ADDDE920918CE84D
:104E20000C00039103C88EE80C0086E803000EAB6B
:104E300097E80300DDE91ABA03E903000D9A284652
:104E40000C9B00929CE80600DDE922871EF0F0FC36
:104E500004F14002DDE90C31009195E8030082E89D
:104E6000030096E8060028461EF0E2FC04F1380331
:104E700095E8030083E803001C9B20460399E36246
:104E80001D9BC4F830B0C4F834A0A362C4F82090CD
:104E90006162C4E906870FB0BDE8F08F2DE9F04FDD
:104EA0008BB000F1400700F1380C00F13004EE4601
:104EB00000F1280302AD04AE8EE8060097E8030077
:104EC00006AF002285E803009CE80300DDF800C07F
:104ED00086E8030094E803001646019C87E8030077
:104EE00093E803000AAB174603E90300DDE9083045
:104EF000A918844255F802E04968ACBF4FF0000899
:104F00004FF00108A3EB0E038C42A4EB0109A0EBC8
:104F1000010BACBF4FF0000A4FF0010A09FB03F38D
:104F2000C24514D093FBFBF373449C450BDD87F023
:104F30000107083208467346202AD9D147EA0600FD
:104F40000BB0BDE8F08FB8BF86F00106F1E78442F0
:104F5000D4BF002001208C42D4BF4FF000084FF096
:104F600001088045DED1E4E784B02DE9F04FA1B01F
:104F70002BAD319C85E80E00309B0CB184426CD186
:104F8000D0F8B8209A4268DCD0F8B4209A4264DBAA
:104F9000D0F8B0302F9A934201D0002B5DDA90F810
:104FA000BC30002B51D0D0F8AC30329A1A4254D1D8
:104FB0000446FEF79BF8002856D00EAE2368214623
:104FC0000DF128083046DB6B98472E9F0DF1040C3D
:104FD00096E80F008CE80F000097404695E80E0019
:104FE0001EF0F2FC98E80F00DDE90AB6DDE90CA935
:104FF0001EF0C0FC074680BB2E9B06A8009395E8D8
:105000000E001EF037FEDDE906239345C8BFABEB6B
:105010000207924502DCAAEB0207013F9E42CCBF89
:10502000F61A0026994502DCA9EB0306013E002191
:105030003C481EF049F806FB06F30546C46107FB31
:105040000733C0E90576036108E090F8C030002B13
:10505000A9D0836C2F9A9342A5D00025284621B071
:10506000BDE8F04F04B07047DDF8B8800EAEDDF853
:10507000ACA00746CDF800803046DDE92CB995E8B4
:105080000E001EF0F7FD10AB12AA14ADCDE918AB5F
:1050900096E8030083E80300CDF840A016AB82E851
:1050A000030096E80300CDF84CB05A4685E80300AB
:1050B00096E80300CDF8509083E8030049461AA80B
:1050C000CDF85C801EF082FB424651461CA81EF0C3
:1050D0007DFBCDE91E9820AB204603EBC7060137C8
:1050E000483E96E80600FFF7D9FE18B9092FF2D11D
:1050F0000546B3E700210B481DF0E6FF0F9A054671
:105100000E9B009208A896E806001EF07FFBEC615B
:10511000DDE9083101FB01F2A96103FB0322C5E9C6
:1051200004239BE79001009003681B6C09B91022CF
:10513000184700221021184789B3F8B50D460446D8
:10514000816B2846FFF71CFC40B3AA7F002123692E
:1051500084F84320AF69AE8B2869E763A4F8406008
:10516000A06184F84510E2B18B42E3612246CCBFD6
:1051700001230B4684F84430CCBF04F1300304F122
:10518000280393E803001FF0FDFB94F8450010B9D5
:10519000236901332361B0FA80F04009F8BD084665
:1051A0007047012B04F1200103F1FF332261D4BFCA
:1051B000002001202246E36184F8440003C91FF067
:1051C000E1FB94F84510B1FA81F04009F8BD00BF49
:1051D00038B50B4604460D4918461EF0B9F8246C44
:1051E00080B1054614B90DE064695CB194F84230B1
:1051F000002BF9D029462046FFF79EFF0028F3D068
:10520000204638BD0024204638BD00BF080300906A
:1052100070B5866C04460D46104930461EF098F86D
:1052200090B1036829461B6D984700B170BD236893
:1052300029462046DB6A98470028F7D129462046B0
:10524000BDE87040FFF7C4BF002EF0D03368304691
:105250002946DB6A98470028E8D1E8E7F003009088
:105260002DE9F041C46B80460E46F4B115461A4F45
:1052700007E0E0691FF0E0F930B9012364699CB1EF
:1052800093B12946002DF4D1394620461EF060F82E
:105290002A46314690B103685B6D98476469B0FA5D
:1052A00080F35B09002CEBD130B9D8F800303146DF
:1052B0004046DB6A984748B1BDE8F0812368204644
:1052C000DB6A9847B0FA80F35B09D7E7314640467E
:1052D000BDE8F041FFF77CBFF003009010B5044635
:1052E00031B1036E002B16BF012000200B61087541
:1052F0002046FFF7B5FF0023236610BD836D002B0A
:1053000070B504460D4612DC35B1236E002B16BF76
:10531000012200222B612A75D4F8FC0378B10368BE
:1053200029461B6D984750B10023236670BD114973
:1053300028461EF00DF80028E6D0002070BDE66D6E
:1053400096B13069294603681B6D98470028EBD158
:10535000236829462046DB6A98470028E4D129467D
:105360002046FFF735FFDFE729462046FFF750FFCD
:10537000266670BD080300902DE9F04F056D83B0DF
:1053800004460E46002D91461F4614BF4FF00108FB
:105390004FF000083ED01BB1D0F808348B4267D0E4
:1053A0007B4928461DF0D4FF7A498246206D1DF0C6
:1053B000CFFFD4F80814834600294AD1B4F80C343E
:1053C000002B38D1BBF1000F1BD05846FFF7B4FEBD
:1053D000002394F80F24C4F80834A4F80C3423658F
:1053E000E2B1002F6DD10022C4F80824A4F80C24E7
:1053F00084F80F2493B100234046236603B0BDE830
:10540000F08FBAF1000FE3D0DAF800305046DB6AD3
:105410009847DDE790F80F34002B60D1002FEAD0D9
:10542000A36D002B71DD0123C4F80864A4F80C946B
:1054300084F80F34DFE7002157481DF045FEB4F82B
:105440000C140022FFF7E2F90146BBF1000FBCD1BA
:10545000D7E7002150481DF037FED4F80814002289
:10546000FFF748FAB4F80C340146002BAAD0E2E763
:10547000B0F80C349342019392D1454928461DF06F
:1054800067FF44498246206D1DF062FF8346002E6F
:1054900031D13146B4F80C2442B100213E481DF010
:1054A00013FE01990122FFF7B1F90146BBF1000F8C
:1054B00017D05846FFF740FE236D94F80F24002ABA
:1054C00098D0D4F80824B2428DD1B4F80C244A45BF
:1054D00089D1002B8FD1A36D002BA4DC8BE72B4649
:1054E0007FE7BAF1000F04D0DAF800305046DB6AEB
:1054F0009847236DE1E7002127481DF0E5FD31467F
:105500000122FFF7F7F90146C4E794F80F140029C8
:105510007FF471AF7EB9B9F1000F1AD1206D1D492A
:105520001DF016FF58B3C4F80864A4F80C94FDB13C
:105530004FF001085FE718481DF0C6FD0122314613
:10554000FFF7D8F92368014620461B6D9847206570
:10555000E1E7002110481DF0B7FD01224946FFF7A1
:1055600055F92368014620461B6D98472065D6E70C
:10557000236D13F1000818BF4FF001083BE7044901
:10558000206D1DF0E5FE0028CDD12065CBE700BFE2
:10559000000000906C02009008030090FFF7ECBE42
:1055A00010B50849044640681DF0D2FE18B1036CDE
:1055B0006361046410BD04481FF0A4FFBDE81040FF
:1055C0001DF05CBDF00300906004009038B5044607
:1055D00015461DF05BFD06480123942220602946F4
:1055E000A263204684F84230BDE83840FFF7D8BFB8
:1055F0006C02009030B482B0C16102AC04E90C00CE
:10560000019D009A05FB05F4856102FB0244C0E997
:10561000044202B030BC7047036910B504460BB1B8
:105620001EF012FE0023236110BD00BF38B50446F2
:105630000D4609B11EF0D4FD256138BD10B50446F4
:10564000006908B120F0A0FE0023236110BD00BF57
:10565000F8B5046905460F4616465CB1204620F0B1
:1056600011FF26EAE67227EAE771204620F0D2FE13
:105670002C61F8BD002A01DC0029F9DD2946034828
:1056800020F04EFE0028F3D00446E7E7910500081D
:1056900070B5044682B01DF0F9FC1D4DFF231421A6
:1056A0001F2204F16406E36420466162E261256022
:1056B000FEF746F93046214600221DF0E7FCA5F52D
:1056C000E8727F20A5F5B0750121626694F88C30F0
:1056D00032222560E06184F80E14C4F8842023B1DE
:1056E0003046D4F88810FFF7B3FFFA236D4608213F
:1056F000084AC4F804342846C4F8001421461FF0B0
:1057000007F97C3495E8030084E8030002B070BD1B
:10571000F00300904157000810B5044680F82810A7
:1057200039B1D0E90821FFF793FF09F059FA606118
:1057300010BD0A46FFF78CFF09F052FA606110BDF8
:1057400000232DE9F04F82469BB000F1900881467E
:105750001F460893D8F8BC61002E00F0948009F52C
:105760003173B5690CACAA4593E8030084E80300E3
:1057700010D015B90EE0AA450AD0EB6A2046009376
:10578000AB6A94E806001EF041F8AD69002DF2D135
:10579000D8F8BC61002D00F08880D8F840210021A5
:1057A000DAF878300DF1280B90489B1A092BD8BFF6
:1057B0000A23C8F8C830CAF864731DF085FCDAF80B
:1057C00060304FF0010E0546002B09F5C07CCDF886
:1057D00020E016BF01220022036109F51D73027546
:1057E00014AAD8F80010D8F8C800714403900491A6
:1057F000D9F8C812D9F8C4020691D9F81413059043
:10580000079194E80300D9F8184382E80300DCE923
:1058100000010DF1580C8CE803004FF0010C93E8E7
:10582000030085F844C00DF1680C2F640CE90300F7
:1058300019995846189B009106CA1DF0F9FF05F109
:105840003802199B9BE8030082E8030016AA584619
:1058500006CA0093189B1DF0EBFF326805F1300378
:10586000D26A9BE8030083E80300059B04992B623E
:10587000069B03986B62079BA9622946E862304643
:10588000C5E906349047013708F1040809F1080911
:105890000A2F7FF45FAF089B23B99AF88C30002B56
:1058A00040F09D801BB0BDE8F08FB2453FF475AF6E
:1058B000CAF864732946C8F8BC5109F51D754B48F0
:1058C0004FF0000B1DF000FCDAF86030044609F5DB
:1058D000FE71002B09F5C07E0DF1480C16BF0122A8
:1058E0000022036102750EAAD8F80000D8F8C8306B
:1058F000013003930490D9F8C802D9F8C432079054
:105900000593D9F8143303C90993D9F8183382E8F9
:105910000300DEE900010DF1400E06938EE803005E
:10592000D5E9000184F844B027648CE8030013999A
:105930000AA8129B009106CA1DF07AFF0AA904F179
:105940003802139D129B03C982E8030010A90AA81C
:1059500006C900951DF06CFF0AAA04F13003049DEE
:1059600092E80300039A83E8030084F845B02146D7
:1059700033683046E262059AA5622262079ADB6AC2
:105980006262099AA261069AE2619847DAF8F831F0
:1059900000211748B34208BFCAF8F8B11DF094FBC4
:1059A000DAF8603004460021002BD9F8C85216BF3F
:1059B00001220022036102751822D8F80030D9F8BC
:1059C000C4020133A185E061214663625046DAF8E2
:1059D00000302562A762A6615B6D984753E708997E
:1059E0000AF164001BB0BDE8F04F95E6500300904B
:1059F0002C03009082B0092A2DE9F04FC1B0044673
:105A00004B9306D90020206641B0BDE8F04F02B0AC
:105A100070471546D0F8002416AE076E52428946EC
:105A200030460DF1900A11461DF0D0FED4F8002446
:105A300018A8013211461DF0C9FE199A5046189B4C
:105A4000009296E806001DF047FF002F00F03E810F
:105A500005F158060DF5967829462046F600D4F84B
:105A600060B098E80C00FEF71DFD321DA319A118C7
:105A7000A258043307924A6893E803000692C4F8D8
:105A800060B088E80300B9F1000F40F0C18004EB7A
:105A90008509D9F84C82B8F1000FB3D0D8F8187046
:105AA000BC42DDE9063216D0AFB10DF1500801E07D
:105AB000BC420ED0F96A40460091CDE91423BB6A7E
:105AC00098E806001DF0A2FEBF69DDE91423002F4F
:105AD000EED1D9F84C82002F00F0FC800021C4F8F0
:105AE00064538648C9F84C12CDE908321DF0ECFA2F
:105AF000216E0746002914BF01200020DDE908328D
:105B0000387500D039615436D9F8901005F130005D
